:100000000A128A11CD2FFF1B0D2883137F18831727
:100010000008840A0319FF0A080000308A00040857
:10002000840A8207003456346F346C34743461347B
:100030006A34653420345234413430343A34003434
:1000400056346F346C34743461346A34653420341B
:100050005234413431343A34003450346F347234D1
:10006000633420345234413430343A340034503420
:100070006F347234633420345234413431343A347E
:100080000034253475342E3425343034333475340B
:100090002034563400344134443443342034523410
:1000A000413430343A34003441344434433420341D
:1000B0005234413431343A340034253475342034E8
:1000C00025342534003425347534003408000734D1
:1000D00000341A342C343E3403308316031788005E
:1000E0008901831603130514851401308312031349
:1000F0009F008030831603139F007F308105080026
:10010000F500831203135F0884008317601C8313B8
:100110000130F30061080739013E90280310F30D08
:10012000FF3E031D8E287308FF3A800575080A12EA
:100130008A1191230A128A11831203135F08840023
:100140008317601C83130130F300610CF400F40C7E
:10015000740C0739013EAE280310F30DFF3E031D5A
:10016000AC28730880040630F4003030F300F30B41
:10017000B728F40BB7280000831203135F0884002C
:100180008317601C83130130F300610CF400F40C3E
:10019000740C0739013ECE280310F30DFF3E031DFA
:1001A000CC287308FF3A800508000030831203133F
:1001B000AB000030AA000030A9000030A8002308DE
:1001C0002204210420040319E628E72832290130FB
:1001D000AC00F5280130FD000310A00DA10DA20D0B
:1001E000A30DFD0BEC280130AC07A31FF828F9285C
:1001F000EA280130FD000310A80DA90DAA0DAB0DD2
:10020000FD0BFB2823082702031D102922082602C4
:10021000031D102921082502031D1029200824028E
:10022000031C1329142923292008A4022108031CD4
:10023000210FA5022208031C220FA6022308031C7B
:10024000230FA702281401300310A30CA20CA10C49
:10025000A00CFF3E031D24290130AC02031D3129EF
:100260003229F9282B08A3002A08A2002908A10096
:100270002808A0000800013083120313B3006508AA
:10028000B5006408B4001F30B6000030B700831614
:100290000313E4018129FF30B6070318B70AFF30C2
:1002A000B7073608C53E84000A30F0000030F10080
:1002B0003208F3003108F2000A128A1506260A12E3
:1002C0008A117008303E8313800083120313B30138
:1002D000FF30B4070318B50AFF30B5070A30F00045
:1002E0000030F1003208F3003108F2000A128A15DA
:1002F00080260A128A11710883120313B200700853
:10030000B100831236083704031987298829A629E2
:1003100031083204031D8D298E294B293308031D12
:10032000922993294B293508803AFF0080307F02BB
:10033000031D9C2901303402031C9F29A029A629F2
:1003400083120313E818A529A6294B298312031346
:100350002F08A8003008A9003608C53EAA003508B5
:10036000AC003408AB000A128A15AD270A128A11B4
:100370000800F500831203135F0884008317601CD4
:1003800083130130F30061080739013EC9290310C6
:10039000F30DFF3E031DC729730880047508F300A1
:1003A00004300310F30CFF3E031DD12973080F39ED
:1003B0000A128A1191230A128A11831203135F0809
:1003C00084008317601C83130130F300610CF40078
:1003D000F40C740C0739013EEF290310F30DFF3EB6
:1003E000031DED29730880040D30F300F30BF6298B
:1003F000831203135F0884008317601C831301308A
:10040000F300610CF400F40C740C0739013E0A2A65
:100410000310F30DFF3E031D082A7308FF3A800501
:1004200075080F390A128A1191230A128A11831250
:1004300003135F0884008317601C83130130F300EB
:10044000610CF400F40C740C0739013E292A0310E6
:10045000F30DFF3E031D272A730880040D30F300BF
:10046000F30B302A831203135F0884008317601C88
:1004700083130130F300610CF400F40C740C0739A1
:10048000013E442A0310F30DFF3E031D422A730868
:10049000FF3A80050800720873040319502A512A94
:1004A000572A72087304031D562A572A5E2A7008B9
:1004B0000A128A1166200A128A11E42A7208093E79
:1004C000F40073080318013E003EF5007408840030
:1004D0008317751C83130008F600840A0008F700D0
:1004E000760877040319752A762AA82A7208093E25
:1004F000F40073080318013E003EF5007408840000
:100500008317751C83130008F600840A0008F7009F
:100510007208023EF80073080318013E003EF9001D
:10052000780884008317791C83130008FA00840A72
:100530000008FB007B08803AFC007708803A7C02C8
:10054000031DA42A76087A020318A72AA82AE42AF7
:10055000720884008317731C83130008F400840A54
:100560000008F5007208023EF60073080318013E09
:10057000003EF700760884008317771C8313000879
:100580007407F9007508F8000318F80A801FC92AD3
:10059000F8037808FA007908840083177A1C83131B
:1005A000700880007208023EF40073080318013ED0
:1005B000003EF500740884008317751C8313013016
:1005C0008007840A0318800A08005F3084007608D8
:1005D00083138000840A77088000840A78088000EA
:1005E000840A79088000840A7A0880000030831227
:1005F00003136006031DFE2A05305F06031D012B51
:10060000022B062B831603138501212B0030600675
:10061000031D0C2B06305F06031D0F2B102B142B14
:10062000831603138601212B00306006031D1A2B4D
:1006300007305F06031D1D2B1E2B902B8316031303
:1006400087011A30FC00F830FB00FB0B252BFC0B5C
:10065000252B000003300A128A1180200A128A1109
:100660000730FC007D30FB00FB0B342BFC0B342BE4
:1006700003300A128A1180200A128A111530FC00F8
:10068000C630FB00FB0B422BFC0B422B000003305F
:100690000A128A1180200A128A1102300A128A1163
:1006A00080200A128A1102300A128A1180200A124E
:1006B0008A1108300A128A1180200A128A11003029
:1006C0000A128A1180200A128A1106300A128A112F
:1006D00080200A128A110830FD007D157D08FB007C
:1006E00004300310FB0CFF3E031D712B7B080F39F8
:1006F0000A128A1180200A128A117D080F390A1203
:100700008A1180200A128A1100300A128A11802070
:100710000A128A1101300A128A1180200A128A11E3
:100720000800F200721C952B962BAB2B831203133F
:100730005F0884008317601C83130130F000620897
:100740000739013EA52B0310F00DFF3E031DA32B1F
:1007500070088004C02B831203135F088400831782
:10076000601C83130130F00062080739013EBA2B88
:100770000310F00DFF3E031DB82B7008FF3A8005F3
:10078000F21CC32BC42BDA2B5F0884008317601C78
:1007900083130130F000620CF100F10C710C073989
:1007A000013ED42B0310F00DFF3E031DD22B700829
:1007B0008004F02B5F0884008317601C83130130D2
:1007C000F000620CF100F10C710C0739013EEA2BCC
:1007D0000310F00DFF3E031DE82B7008FF3A800563
:1007E000721DF32BF42B072C5F0884008317601C09
:1007F00083130130F00063080739013E012C031018
:10080000F00DFF3E031DFF2B700880041A2C5F08BB
:1008100084008317601C83130130F00063080739DC
:10082000013E142C0310F00DFF3E031D122C700826
:10083000FF3A8005F21D1D2C1E2C342C5F0884000D
:100840008317601C83130130F000630CF100F10C7E
:10085000710C0739013E2E2C0310F00DFF3E031DD5
:100860002C2C700880044A2C5F0884008317601CBD
:1008700083130130F000630CF100F10C710C0739A7
:10088000013E442C0310F00DFF3E031D422C700866
:10089000FF3A80050800831203133A08840083138B
:1008A000000884000A128A110D200A128A11253AC2
:1008B000031D5B2C5C2C032D3A088400013080075B
:1008C000E401E5010030E800FF30E600FF30E7001A
:1008D000C201802CE8143A08840001308007802C83
:1008E0000130C200802C3A088400000884000A12FB
:1008F0008A110D200A128A11303A03196A2C702CC1
:1009000042080319842C852C732C3A08F6003B0806
:10091000F7000A128A155A270A128A1177088312D9
:100920000313E5007608E400E51F972C982C9E2C15
:100930006814E409E509E40A0319E50A3A088400A1
:1009400083130008C300430884000A128A110D2093
:100950000A128A11753A031DAE2CAF2CDB2C3B0812
:1009600084000008BC00023080073C0884000008B6
:10097000BE00840A0008BF003A0884004308013E14
:100980008000D02C3808AF003908B0003F08B20012
:100990003E08B1000A128A113B210A128A111C2D4D
:1009A000430884000A128A110D200A128A11753A2E
:1009B0000319C22CDB2C3A088400000884000A12B8
:1009C0008A110D200A128A11253A031DE82CE92C00
:1009D000FB2C3A088400013080072530F0000030FD
:1009E000F1003808F2003908F3000A128A114B228C
:1009F0000A128A111C2D831203133A088400013055
:100A0000831380071C2D3A088400000884000A1212
:100A10008A110D200A128A11BC00BD013C08F000A9
:100A20003D08F1003808F2003908F3000A128A1173
:100A30004B220A128A11FB2C080083160313C101F2
:100A4000C4010130BB000130BC000A128A116C20C5
:100A50000A128A118316031306148614B030840018
:100A600083120313690883138000840A6A088000D4
:100A7000840A6B088000840A6C088000840A6D0870
:100A80008000763084008316031330088000840AC7
:100A900031088000840A32088000840A330880000C
:100AA000840A340880000A128A11E5220A128A1187
:100AB0008312031306185D2D5E2D8F2D83160313ED
:100AC0003B080319642D652D8F2D343083120313D9
:100AD000DD00F130DC00DC0B6B2DDD0B6B2D8312A8
:100AE00003130618742D752D8F2D013083160313F3
:100AF000C10703304102031C7E2D7F2D802DC101D3
:100B00008312061C842D852D802D3430831203130F
:100B1000DD00F130DC00DC0B8B2DDD0B8B2D831227
:100B200003130608013983160313BB008312031352
:100B300086189B2D9C2DCC2D831603133C0803197E
:100B4000A22DA32DCC2D343083120313DD00F13000
:100B5000DC00DC0BA92DDD0BA92D831203138618F5
:100B6000B22DB32DCC2D8316031344080319B92DD0
:100B7000BB2D0130BC2D0030C4008312861CC12D5A
:100B8000C22DBD2D343083120313DD00F130DC00A3
:100B9000DC0BC82DDD0BC82D83120313060C0139A5
:100BA00083160313BC0044080A128A15B4250A12DE
:100BB0008A11710883160313C3007008C200003045
:100BC0000A128A1180200A128A1101300A128A112F
:100BD00080200A128A11AD2F003083120313A30064
:100BE0000030A2000330A100FF30A00083160313E1
:100BF0004208F0004308F100F201F3010030F70071
:100C00000030F6001330F5008830F4000A128A151F
:100C1000C2260A128A11730883120313A7007208EE
:100C2000A6007108A5007008A4000A128A11D52038
:100C30000A128A1183120313230883160313C000B8
:100C400083120313220883160313BF0083120313B6
:100C5000210883160313BE00831203132008831692
:100C60000313BD00003083120313A3000030A20061
:100C70000330A100E830A00083160313400883125C
:100C80000313A700831603133F0883120313A60060
:100C9000831603133E0883120313A5008316031360
:100CA0003D0883120313A4000A128A11D5200A12E8
:100CB0008A1183120313210883160313B8008312C9
:100CC0000313200883160313B7000030F30000302D
:100CD000F2000330F100E830F0004008F7003F0870
:100CE000F6003E08F5003D08F4000A128A150827B0
:100CF0000A128A11710883160313BA007008B9002A
:100D000008300A128A1180200A128A1100300A1251
:100D10008A1180200A128A11831603134408031DC6
:100D2000922E932E9D2E0130F6008030F7000A128D
:100D30008A153E260A128A11A62E0E30F600803041
:100D4000F7000A128A153E260A128A11A030831271
:100D50000313C9002F30CA00831603133808831207
:100D60000313CC0083160313370883120313CB003D
:100D7000831603133A0883120313CE00831603135A
:100D8000390883120313CD000A128A156C250A1242
:100D90008A110C300A128A1180200A128A1100303E
:100DA0000A128A1180200A128A11A030F60000303F
:100DB000F7000A128A153E260A128A11BA2F083045
:100DC0000A128A1180200A128A1100300A128A112E
:100DD00080200A128A11831603134408031DF12E82
:100DE000F22EFC2E3930F6008030F7000A128A15F8
:100DF0003E260A128A11052F4230F6008030F70095
:100E00000A128A153E260A128A11A0308312031391
:100E1000C9005130CA008316031343088312031319
:100E2000CC0083160313420883120313CB000A126B
:100E30008A156C250A128A110C300A128A11802038
:100E40000A128A1100300A128A1180200A128A11AD
:100E5000D52E003083120313A3000030A20003300C
:100E6000A100FF30A000831603134208F0004308DE
:100E7000F100F201F3010030F7000030F60000301D
:100E8000F5006430F4000A128A15C2260A128A118B
:100E9000730883120313A7007208A6007108A50047
:100EA0007008A4000A128A11D5200A128A1183122E
:100EB0000313210883160313B600831203132008BB
:100EC00083160313B50008300A128A1180200A1213
:100ED0008A1100300A128A1180200A128A118316A0
:100EE00003134408031D752F762F802F1B30F60047
:100EF0008030F7000A128A153E260A128A11892FBD
:100F00002530F6008030F7000A128A153E260A12B4
:100F10008A11A03083120313C9004B30CA00831614
:100F20000313360883120313CC008316031335080A
:100F300083120313CB000A128A156C250A128A1138
:100F40000C300A128A1180200A128A1100300A120B
:100F50008A1180200A128A11D52E831603134108A4
:100F6000003A0319EC2D013A0319DF2E033A031955
:100F7000292FBA2F023083120313DE000430DD0064
:100F8000B930DC00DC0BC22FDD0BC22FDE0BC22F11
:100F9000C92F582D0A128A1100280A128A116720B7
:100FA0000A128A11E9000A128A1168200A128A11AB
:100FB000EA000A128A1169200A128A11EB000A1249
:100FC0008A116A200A128A11EC000A128A116B2017
:100FD0000A128A11ED008313C5308400E5300A122D
:100FE0008A1541250A128A115F30840069300A127D
:100FF0008A1541250A128A1183010A128A111D2DB0
:101A820064008001840A0406031900340406422D0E
:101A9200831203134608C8005B2D4408B8004508AA
:101AA200B9004830BA004708BB000A128A114B2419
:101AB2000A128A1583120313480884000A128A1133
:101AC2000D200A128A15003A031D682D692D4E2D2C
:101AD200C401C50108004B3083120313D00049082A
:101AE200D1000030D200D301D401DA01DB01513040
:101AF200C4000030C5004A08C6005030C7000A12B0
:101B02008A1549250A128A158312031353084907B5
:101B1200CF004F088400831380010800F401F5010F
:101B2200701C942D952D9B2D7208F4070318F50A4D
:101B32007308F50701300310F20DF30DFF3E031D8C
:101B42009C2D01300310F10CF00CFF3E031DA32D60
:101B520070087104031DAE2DAF2D912D7508F10093
:101B62007408F0000800F400C330831203139F05C9
:101B72007408F20001300310F20DFF3E031DBC2D6C
:101B82000310720D9F040630F3003030F200F20BA6
:101B9200C82DF30BC82D0000831203139F149F1846
:101BA200D32DD42DD02D1E08F100831603131E0849
:101BB200F000080083120313A601A701F82D2508DF
:101BC200A300A4012308F0002408F1002108F20078
:101BD2002208F3000A128A114B220A128A150130D6
:101BE20083120313A6070318A70A0030A7072608C3
:101BF2002007A3002308840083130008A5002508FA
:101C0200031D042E052EE02D08007008710403192F
:101C12000B2E0C2E392E0130F400182E0130031039
:101C2200F00DF10DFF3E031D102E0130F407F11FE0
:101C32001B2E1C2E0F2E71087302031D222E7008FC
:101C42007202031C252E262E2C2E7008F202710819
:101C5200031CF303F30201300310F10CF00CFF3EFE
:101C6200031D2D2E0130F402031D382E392E1C2E99
:101C72007308F1007208F0000800FB01FC01632EFA
:101C82007B087607F9007708F8000318F80AFB1FAB
:101C92004B2EF8037808FA007A0883120313FF0028
:101CA200790884000A128A1103200A128A150A127C
:101CB2008A11B9210A128A150130FB070318FC0A9E
:101CC2000030FC077B087607F9007708F800031854
:101CD200F80AFB1F6D2EF8037808FA007A088312BF
:101CE2000313FF00790884000A128A1103200A12E2
:101CF2008A15003A031D7E2E7F2E412E0800F40124
:101D0200F501700871040319872E882EBD2E01304B
:101D1200F600942E01300310F00DF10DFF3E031D6D
:101D22008C2E0130F607F11F972E982E8B2E013044
:101D32000310F40DF50DFF3E031D992E7108730279
:101D4200031DA52E70087202031CA82EA92EB02E08
:101D52007008F2027108031CF303F30274140130D9
:101D62000310F10CF00CFF3E031DB12E0130F60200
:101D7200031DBC2EBD2E982E7508F1007408F000CC
:101D820008000030FC000030FB000030FA00003098
:101D9200F900701CCD2ECE2EE52E7408F9077508B9
:101DA20003110318013E0319D72EFA07760803110F
:101DB2000318013E0319DE2EFB07770803110318EF
:101DC200013E0319E52EFC070130F8000310F40D63
:101DD200F50DF60DF70DF80BE72E01300310F30C9D
:101DE200F20CF10CF00CFF3E031DEF2E730872048F
:101DF20071047004031DFE2EFF2ECA2E7C08F30010
:101E02007B08F2007A08F1007908F00008007308F4
:101E120072047104700403190F2F102F512F013017
:101E2200F9001E2F0130F8000310F00DF10DF20D34
:101E3200F30DF80B152F0130F907F31F212F222F75
:101E4200132F73087702031D302F72087602031DC9
:101E5200302F71087502031D302F70087402031CA5
:101E6200332F342F422F7008F4027108031C710FB4
:101E7200F5027208031C720FF6027308031C730F3B
:101E8200F70201300310F30CF20CF10CF00CFF3EE0
:101E9200031D432F0130F902031D502F512F222F12
:101EA2007708F3007608F2007508F1007408F00074
:101EB2000800FA01FB0176088400831300088400FD
:101EC2000A128A110D200A128A152A3A031D6A2F54
:101ED2006B2F972F760884000130800777088400E3
:101EE2000008F80002308007780884000008FA0031
:101EF200840A0008FB00A82F7B08F1007A08F00092
:101F02000A30F2000030F3000A128A158F250A12F5
:101F12008A1579087007FA0000300318013071073A
:101F2200FB00760884000130831380077608840062
:101F3200000884000A128A110D200A128A15D03E66
:101F4200F9000A307902031CA72FA82F7D2F7B08E6
:101F5200F7007A08F600080083120313681CB22FF8
:101F6200B32FBE2F2A08A0002808A1002908A2002A
:101F72000A128A15DB250A128A1583120313AC1F73
:101F8200C32FC42FC62FAB01AC01AD01AE01E02FB0
:101F92002030F0000030F100831203132808F20011
:101FA2002908F3000A128A114B220A128A150130FB
:101FB20083120313AD070318AE0A0030AE072E08D2
:101FC200803AFD002C08803A7D02031DEA2F2B087F
:101FD2002D02031CED2FEE2FC92F83120313681855
:101FE200F32FF42FFF2F2A08A0002808A1002908A8
:0E1FF200A2000A128A15DB250A128A150800C1
:04400E00F22FFF3F4F
:00000001FF
