:100000000A128A11E22F00308A000408840A82074B
:10001000003454344F344334413444344F34213465
:020020000034AA
:10028600831203130C0EF000700C01390800F600FF
:1002960076080A128A11E5230A128A1108008312C7
:1002A6000313981C572958295A29181218161A0880
:1002B6000800F00083160313981C622963295D2940
:1002C60070088312031399000800F10042300A12E5
:1002D6008A115C210A128A117108303E0A128A11AB
:1002E6005C210A128A110800F000831203134008E9
:1002F60003197E297F29802987290130C0007008CB
:10030600BF00BE010130BD000800831603130514AB
:100316008514033083160317880089018130831200
:1003260003139F008030831603139F000800831673
:1003360003130717871733309900181518128312FD
:1003460003139817831603139816831203131816AC
:1003560008007E088A007F0882000A128A11AC21F2
:100366000A128A118000840A04087D0603190034E3
:10037600FF0A0319FE0AB029083400341A342C3453
:100386003E340F34003400340E341F341F340E3420
:10039600003400340E340E3404341F3404340A346A
:1003A60011340034DF290330F3009730F200F20BEA
:1003B600DA29F30BDA29DF290130F0020030031CB9
:1003C600F103F102700A031DEC29710A031DEC29E1
:1003D600ED29D62908008312031340080319F429CE
:1003E600F529F6290A2A0130C0004108BF00250870
:1003F600FF3EBE000230BD00BE1F022A032A0A2AA3
:10040600C0013F080A128A1168210A128A110800DF
:10041600F3008330831203139F057308F200013043
:100426000310F20DFF3E031D132A0310720D9F04E5
:100436001330F200F20B1D2A202A831203139F1495
:100446009F18262A272A232A1E08F100831603133B
:100456001E08F0000800F701F801442A770876071D
:1004660084000A128A1103200A128A110A128A11BA
:10047600E5230A128A110130F7070318F80A00303B
:10048600F8077708760784000A128A1103200A12F1
:100496008A11003A031D502A512A312A08007F2A60
:1004A6000A128A1152210A128A11F10083120313C9
:1004B6003C08031D5F2A602A692A42307106031D23
:1004C600652A662A7F2A0130BC007F2A30307106F1
:1004D60003196E2A6F2A752A31307106031D742A94
:1004E600752A7C2A7108D03E0A128A1177210A12CF
:1004F6008A1183120313BC010A128A1143210A12BC
:100506008A11003A031D882A892A532A0800831271
:1005160003134008031D902A912A922ACB2A3F08EA
:100526004106031D972A982AA82A3E08F200F301DD
:10053600F21BF303250872067304031DA32AA42ADB
:10054600A82AC0010A30BB00CB2A3D03031DAC2AF2
:10055600AD2AB82A0130BE073E08803A703E031C19
:10056600B52AB62ACB2AC001CB2A02303D06031D86
:10057600BD2ABE2ACB2AFF30BE07BE1FC32AC42A05
:10058600CB2AC0013F080A128A1168210A128A1171
:100596000800F9000730F9057908F7000230031062
:1005A600F70DFF3E031DD22A0310770D403EF800DB
:1005B60004300310F80CFF3E031DDC2A78080F39BF
:1005C6000A128A111B230A128A117908F7000230CF
:1005D6000310F70DFF3E031DEB2A0310770D403E77
:1005E6000F390A128A111B230A128A11FA017A0894
:1005F6007607F70077088400831300080A128A1129
:10060600E5230A128A110130FA0708307A02031C20
:100616000D2B0E2BFA2A08300A128A111B230A12F6
:100626008A1100300A128A111B230A128A11080045
:10063600F50083120313360884008317371C8313CF
:100646000130F30038080739013E2B2B0310F30D58
:10065600FF3E031D292B7308FF3A800575080A1211
:100666008A1113250A128A1183120313360884008D
:100676008317371C83130130F300380CF400F40C95
:10068600740C0739013E492B0310F30DFF3E031D81
:10069600472B730880040B30F4006230F300F30B31
:1006A600522BF40B522B00008312031336088400DE
:1006B6008317371C83130130F300380CF400F40C55
:1006C600740C0739013E692B0310F30DFF3E031D21
:1006D600672B7308FF3A8005080000300A128A115A
:1006E6000B220A128A117108F5007008F400013015
:1006F6000A128A110B220A128A117108F700700871
:10070600F6007408003EF80075080318013EFE3E28
:10071600F9007608003EFA0077080318013EFE3E0F
:10072600FB007908803AFF0080307F02031D9D2B75
:100736003D307802031CA02BA12BAC2B0F3083126B
:10074600031325020318A82BA92BC22B0130A507DA
:10075600C22B7908803AFF007F307F02031DB52B3C
:10076600C43078020318B82BB92BC22B831203139B
:1007760025080319BF2BC02BC22B0130A5027B080D
:10078600803AFF0080307F02031DCB2B3D307A027A
:10079600031CCE2BCF2BD32B83120313C101E42BC7
:1007A6007B08803AFF007F307F02031DDC2BC430BC
:1007B6007A020318DF2BE02BE42B0130831203139C
:1007C600C1000800F500831203133608840083175E
:1007D600371C83130130F30038080739013EF52B27
:1007E6000310F30DFF3E031DF32B730880047508F9
:1007F600F30004300310F30CFF3E031DFD2B7308BA
:100806000F390A128A1113250A128A118312031349
:10081600360884008317371C83130130F300380C25
:10082600F400F40C740C0739013E1B2C0310F30D75
:10083600FF3E031D192C730880041A30F300F30BD6
:10084600222C000083120313360884008317371CFA
:1008560083130130F300380CF400F40C740C0739E0
:10086600013E372C0310F30DFF3E031D352C730894
:10087600FF3A800575080F390A128A1113250A12E4
:100886008A1183120313360884008317371C8313D7
:100896000130F300380CF400F40C740C0739013EF7
:1008A600562C0310F30DFF3E031D542C73088004D1
:1008B6001A30F300F30B5D2C000083120313360885
:1008C60084008317371C83130130F300380CF400BF
:1008D600F40C740C0739013E722C0310F30DFF3E25
:1008E600031D702C7308FF3A800508000A128A114E
:1008F60088210A128A110A128A119A210A128A1169
:1009060083160313061481131514443084008312CE
:100916000313200883138000840A21088000840AB8
:1009260022088000840A23088000840A24088000A4
:100936007630840044088000840A45088000840AD2
:1009460046088000840A47088000840A4808800018
:100956000A128A11CD250A128A112E30F6000030AD
:100966000A128A11CC220A128A112630F6000130A8
:100976000A128A11CC220A128A110A128A115222EA
:100986000A128A110A128A1170230A128A11831214
:1009960003130618CF2CD02CFC2C343083120313EF
:1009A600C300F130C200C20BD62CC30BD62C831267
:1009B60003130618DF2CE02CFC2C0A128A11EE21F8
:1009C6000A128A11F62C0A128A1152220A128A1166
:1009D6001A3083120313C300F730C200C20BF12C86
:1009E600C30BF12CF62C83120313061CFB2CFC2CD8
:1009F600E62C0A128A118A220A128A110A128A110E
:100A060096260A128A117830F0000030F1000A1298
:100A16008A11D5210A128A11C02C0A128A110028BD
:100A2600F200721C172D182D2D2D83120313360874
:100A360084008317371C83130130F0003908073907
:100A4600013E272D0310F00DFF3E031D252D7008D6
:100A56008004422D83120313360884008317371C43
:100A660083130130F00039080739013E3C2D03108D
:100A7600F00DFF3E031D3A2D7008FF3A8005F21C6B
:100A8600452D462D5C2D360884008317371C8313AD
:100A96000130F000390CF100F10C710C0739013E00
:100AA600562D0310F00DFF3E031D542D70088004D3
:100AB600722D360884008317371C83130130F0002B
:100AC600390CF100F10C710C0739013E6C2D031045
:100AD600F00DFF3E031D6A2D7008FF3A8005721D5A
:100AE600752D762D892D360884008317371C8313C0
:100AF6000130F0003A080739013E832D0310F00D4E
:100B0600FF3E031D812D700880049C2D360884004D
:100B16008317371C83130130F0003A080739013E6A
:100B2600962D0310F00DFF3E031D942D7008FF3A1D
:100B36008005F21D9F2DA02DB62D36088400831743
:100B4600371C83130130F0003A0CF100F10C710CE4
:100B56000739013EB02D0310F00DFF3E031DAE2DEB
:100B660070088004CC2D360884008317371C831345
:100B76000130F0003A0CF100F10C710C0739013E1E
:100B8600C62D0310F00DFF3E031DC42D7008FF3A5D
:100B96008005080036308400760883138000840AB6
:100BA60077088000840A78088000840A7908800023
:100BB600840A7A0880000030831203133706031D67
:100BC600E62D05303606031DE92DEA2DEE2D83169A
:100BD60003138501252E00303706031DF42D06303C
:100BE6003606031DF72DF82DFC2D831603138601FB
:100BF600252E00303706031D022E07303606031D4C
:100C0600052E062E0A2E831603138701252E003085
:100C16003706031D102E08303606031D132E142E1C
:100C2600182E831603138801252E00303706031D60
:100C36001E2E09303606031D212E222E952E8316D2
:100C4600031389013430FC00F130FB00FB0B292E25
:100C5600FC0B292E2E2E03300A128A111B230A1290
:100C66008A110D30FC00FB30FB00FB0B382EFC0B11
:100C7600382E3D2E03300A128A111B230A128A11BE
:100C86002A30FC008D30FB00FB0B472EFC0B472E59
:100C96004C2E03300A128A111B230A128A110230C3
:100CA6000A128A111B230A128A1102300A128A11A9
:100CB6001B230A128A1108300A128A111B230A12F0
:100CC6008A1100300A128A111B230A128A11063071
:100CD6000A128A111B230A128A110830FD007D159B
:100CE6007D08FB0004300310FB0CFF3E031D762E2F
:100CF6007B080F390A128A111B230A128A117D08F2
:100D06000F390A128A111B230A128A1100300A129D
:100D16008A111B230A128A1101300A128A111B2317
:100D26000A128A11080000300A128A111B230A12BD
:100D36008A1101300A128A111B230A128A118312A0
:100D460003133B080319A82EA92EC12E08300A1238
:100D56008A111B230A128A1104300A128A111B23D4
:100D66000A128A110130F6000A128A112E220A127C
:100D76008A11013083120313BB02E12F4108031DC0
:100D8600C52EC62EE12E2508803EF900043003103C
:100D9600F90CFF3E031DCA2E79080F390A128A1173
:100DA6001B230A128A11831203132508803E0F396A
:100DB6000A128A111B230A128A11422F4103031DAC
:100DC600E52EE62E012F2508C03EF900043003105B
:100DD600F90CFF3E031DEA2E79080F390A128A1113
:100DE6001B230A128A11831203132508C03E0F39EA
:100DF6000A128A111B230A128A11422F0230410657
:100E0600031D062F072F222F2508943EF9000430D4
:100E16000310F90CFF3E031D0B2F79080F390A1238
:100E26008A111B230A128A11831203132508943E82
:100E36000F390A128A111B230A128A11422F033014
:100E46004106031D272F282F422F2508D43EF900DF
:100E560004300310F90CFF3E031D2C2F79080F39BF
:100E66000A128A111B230A128A11831203132508F8
:100E7600D43E0F390A128A111B230A128A11003036
:100E86000A128A114A210A128A1183120313400890
:100E960003194E2F4F2FE12FBE1B522F532FE12F39
:100EA6003E08803A703E0318592F5A2FE12F3F080B
:100EB600031D5E2F5F2F7A2F3E08803EF900043017
:100EC6000310F90CFF3E031D632F79080F390A1230
:100ED6008A111B230A128A11831203133E08803ECD
:100EE6000F390A128A111B230A128A11DB2F3F03BC
:100EF600031D7E2F7F2F9A2F3E08C03EF900043037
:100F06000310F90CFF3E031D832F79080F390A12CF
:100F16008A111B230A128A11831203133E08C03E4C
:100F26000F390A128A111B230A128A11DB2F02308B
:100F36003F06031D9F2FA02FBB2F3E08943EF900AE
:100F460004300310F90CFF3E031DA42F79080F3956
:100F56000A128A111B230A128A11831203133E08EE
:100F6600943E0F390A128A111B230A128A11DB2FAB
:100F760003303F06031DC02FC12FDB2F3E08D43E92
:100F8600F90004300310F90CFF3E031DC52F790844
:100F96000F390A128A111B230A128A1183120313AC
:100FA6003E08D43E0F390A128A111B230A128A11EF
:100FB60001300A128A114A210A128A110800831383
:100FC6003630FD000130FE00BF30FF0020308400C7
:100FD6000A128A11B0210A128A11B601B701B801A4
:100FE600B901BA01BB01BC01BD01BE01BF01C0010F
:0A0FF600C10183010A128A11792C4F
:04400E00F22FFF3F4F
:00000001FF
