:100000000A128A11E12F00308A000408840A82074C
:10001000003454344F344334413444344F34213465
:020020000034AA
:10027E00831203130C0EF000700C01390800F60007
:10028E0076080A128A11E4230A128A1108008312D0
:10029E000313981C532954295629181218161A0894
:1002AE000800F00083160313981C5E295F29592954
:1002BE0070088312031399000800F10042300A12ED
:1002CE008A1158210A128A117108303E0A128A11B7
:1002DE0058210A128A110800831603130514851477
:1002EE0003308316031788008901813083120313AC
:1002FE009F008030831603139F000800F0008312C6
:10030E0003133F0803198C298D298E299629013054
:10031E00BF007008BE000F30BD000230BC000800E8
:10032E008316031307178717333099001815181201
:10033E00831203139817831603139816831203134D
:10034E00181608007E088A007F0882000A128A1199
:10035E00A9210A128A118000840A04087D06031955
:10036E000034FF0A0319FE0AAD29083400341A348A
:10037E002C343E34003400340E341F341F340E340B
:10038E00003400340E340E3404341F3404340A3472
:10039E0011340034DB290330F3009730F200F20BF6
:1003AE00D629F30BD629DB290130F0020030031CCD
:1003BE00F103F102700A031DE829710A031DE829F1
:1003CE00E929D2290800831203133F080319F029E3
:1003DE00F129F229092A0130BF004108BE00400868
:1003EE00013EBD000130BC003D08803A703E031C4A
:1003FE00012A022A092ABF013E080A128A11642123
:10040E000A128A110800F3008330831203139F052A
:10041E007308F20001300310F20DFF3E031D122A85
:10042E000310720D9F041330F200F20B1C2A1F2AC8
:10043E00831203139F149F18252A262A222A1E0888
:10044E00F100831603131E08F0000800F701F801EF
:10045E00432A7708760784000A128A1103200A12AB
:10046E008A110A128A11E4230A128A110130F7073F
:10047E000318F80A0030F8077708760784000A1286
:10048E008A1103200A128A11003A031D4F2A502A9C
:10049E00302A08007E2A0A128A114E210A128A1167
:1004AE00F100831203133B08031D5E2A5F2A682A9C
:1004BE0042307106031D642A652A7E2A0130BB0074
:1004CE007E2A3030710603196D2A6E2A742A313055
:1004DE007106031D732A742A7B2A7108D03E0A12F4
:1004EE008A1185210A128A1183120313BB010A1283
:1004FE008A113F210A128A11003A031D872A882A7F
:10050E00522A0800831203133F08031D8F2A902AD4
:10051E00912ACA2A3E084106031D962A972AA72A1F
:10052E003D08F200F301F21BF30340087206730458
:10053E00031DA22AA32AA72ABF010A30BA00CA2A7B
:10054E003C03031DAB2AAC2ABD2A0130BD073D0872
:10055E00803A703E031CB42AB52ACA2ABF013E084F
:10056E000A128A1164210A128A11CA2A02303C0622
:10057E00031DC22AC32ACA2AFF30BD07BD1FC82ABF
:10058E00C92ACA2ABF010800F9000730F9057908FF
:10059E00F70002300310F70DFF3E031DD12A0310A2
:1005AE00770D403EF80004300310F80CFF3E031D9B
:1005BE00DB2A78080F390A128A111A230A128A11B5
:1005CE007908F70002300310F70DFF3E031DEA2AEB
:1005DE000310770D403E0F390A128A111A230A12A0
:1005EE008A11FA017A087607F700770884008313D8
:1005FE0000080A128A11E4230A128A110130FA073E
:10060E0008307A02031C0C2B0D2BF92A08300A1223
:10061E008A111A230A128A1100300A128A111A2319
:10062E000A128A110800F50083120313350884009C
:10063E008317361C83130130F30037080739013E48
:10064E002A2B0310F30DFF3E031D282B7308FF3AD0
:10065E00800575080A128A1112250A128A11831250
:10066E000313350884008317361C83130130F300FF
:10067E00370CF400F40C740C0739013E482B0310B0
:10068E00F30DFF3E031D462B730880040B30F40060
:10069E006230F300F30B512BF40B512B000083123D
:1006AE000313350884008317361C83130130F300BF
:1006BE00370CF400F40C740C0739013E682B031050
:1006CE00F30DFF3E031D662B7308FF3A80050800ED
:1006DE0000300A128A110A220A128A117108F500D4
:1006EE007008F40001300A128A110A220A128A11C5
:1006FE007108F7007008F6007408003EF8007508DF
:10070E000318013EFE3EF9007608003EFA00770817
:10071E000318013EFE3EFB007908803AFF00803050
:10072E007F02031D9C2B3D307802031C9F2BA02BB8
:10073E00AB2B0F308312031340020318A72BA82BE9
:10074E00C12B0130C007C12B7908803AFF007F30E2
:10075E007F02031DB42BC43078020318B72BB82BBD
:10076E00C12B8312031340080319BE2BBF2BC12BC1
:10077E000130C0027B08803AFF0080307F02031DEB
:10078E00CA2B3D307A02031CCD2BCE2BD22B8312DB
:10079E000313C101E32B7B08803AFF007F307F02F9
:1007AE00031DDB2BC4307A020318DE2BDF2BE32B69
:1007BE00013083120313C1000800F50083120313E6
:1007CE00350884008317361C83130130F300370875
:1007DE000739013EF42B0310F30DFF3E031DF22BE0
:1007EE00730880047508F30004300310F30CFF3E09
:1007FE00031DFC2B73080F390A128A1112250A12D7
:10080E008A1183120313350884008317361C831351
:10081E000130F300370CF400F40C740C0739013E70
:10082E001A2C0310F30DFF3E031D182C73088004C1
:10083E001A30F300F30B212C00008312031335083A
:10084E0084008317361C83130130F300370CF40039
:10085E00F40C740C0739013E362C0310F30DFF3ED9
:10086E00031D342C7308FF3A800575080F390A12E0
:10087E008A1112250A128A11831203133508840075
:10088E008317361C83130130F300370CF400F40C7D
:10089E00740C0739013E552C0310F30DFF3E031D5A
:1008AE00532C730880041A30F300F30B5C2C0000F9
:1008BE0083120313350884008317361C831301300B
:1008CE00F300370CF400F40C740C0739013E712C54
:1008DE000310F30DFF3E031D6F2C7308FF3A8005C6
:1008EE0008000A128A1173210A128A110A128A1139
:1008FE0097210A128A1183160313061481131514F5
:10090E004430840083120313200883138000840A6A
:10091E0021088000840A22088000840A23088000AF
:10092E00840A240880007630840044088000840AFB
:10093E0045088000840A46088000840A4708800023
:10094E00840A480880000A128A11CC250A128A11DC
:10095E002D30F60000300A128A11CB220A128A11AB
:10096E002530F60001300A128A11CB220A128A11A2
:10097E000A128A1151220A128A110A128A116F233F
:10098E000A128A11831203130618CE2CCF2CFB2CBD
:10099E00343083120313C300F130C200C20BD52CC6
:1009AE00C30BD52C831203130618DE2CDF2CFB2C65
:1009BE000A128A11EA210A128A11F52C0A128A11D8
:1009CE0051220A128A111A3083120313C300F73010
:1009DE00C200C20BF02CC30BF02CF52C83120313A8
:1009EE00061CFA2CFB2CE52C0A128A1189220A12FB
:1009FE008A110A128A1195260A128A117830F0008D
:100A0E000030F1000A128A11D1210A128A11BF2C6C
:100A1E000A128A110028F200721C162D172D2C2D89
:100A2E0083120313350884008317361C8313013099
:100A3E00F00038080739013E262D0310F00DFF3E59
:100A4E00031D242D70088004412D831203133508D5
:100A5E0084008317361C83130130F00038080739E1
:100A6E00013E3B2D0310F00DFF3E031D392D700886
:100A7E00FF3A8005F21C442D452D5B2D3508840070
:100A8E008317361C83130130F000380CF100F10C83
:100A9E00710C0739013E552D0310F00DFF3E031D5D
:100AAE00532D70088004712D350884008317361C71
:100ABE0083130130F000380CF100F10C710C073982
:100ACE00013E6B2D0310F00DFF3E031D692D7008C6
:100ADE00FF3A8005721D742D752D882D3508840002
:100AEE008317361C83130130F00039080739013E95
:100AFE00822D0310F00DFF3E031D802D7008800423
:100B0E009B2D350884008317361C83130130F000AB
:100B1E0039080739013E952D0310F00DFF3E031DD8
:100B2E00932D7008FF3A8005F21D9E2D9F2DB52D39
:100B3E00350884008317361C83130130F000390CFE
:100B4E00F100F10C710C0739013EAF2D0310F00DC1
:100B5E00FF3E031DAD2D70088004CB2D350884009B
:100B6E008317361C83130130F000390CF100F10CA1
:100B7E00710C0739013EC52D0310F00DFF3E031D0C
:100B8E00C32D7008FF3A80050800353084007608C2
:100B9E0083138000840A77088000840A7808800016
:100BAE00840A79088000840A7A0880000030831253
:100BBE0003133606031DE52D05303506031DE82DFE
:100BCE00E92DED2D831603138501242E00303606F4
:100BDE00031DF32D06303506031DF62DF72DFB2DC7
:100BEE00831603138601242E00303606031D012EB4
:100BFE0007303506031D042E052E092E831603130A
:100C0E008701242E00303606031D0F2E08303506C0
:100C1E00031D122E132E172E831603138801242E56
:100C2E0000303606031D1D2E09303506031D202EFD
:100C3E00212E942E8316031389013430FC00F130DB
:100C4E00FB00FB0B282EFC0B282E2D2E03300A1238
:100C5E008A111A230A128A110D30FC00FB30FB0098
:100C6E00FB0B372EFC0B372E3C2E03300A128A114B
:100C7E001A230A128A112A30FC008D30FB00FB0B5E
:100C8E00462EFC0B462E4B2E03300A128A111A23C7
:100C9E000A128A1102300A128A111A230A128A11B2
:100CAE0002300A128A111A230A128A1108300A1205
:100CBE008A111A230A128A1100300A128A111A2373
:100CCE000A128A1106300A128A111A230A128A117E
:100CDE000830FD007D157D08FB0004300310FB0C71
:100CEE00FF3E031D752E7B080F390A128A111A2337
:100CFE000A128A117D080F390A128A111A230A1252
:100D0E008A1100300A128A111A230A128A1101302E
:100D1E000A128A111A230A128A11080000300A12C6
:100D2E008A111A230A128A1101300A128A111A2301
:100D3E000A128A11831203133A080319A72EA82E3A
:100D4E00C02E08300A128A111A230A128A11043090
:100D5E000A128A111A230A128A110130F6000A1297
:100D6E008A112D220A128A11013083120313BA023C
:100D7E00E02F4108031DC42EC52EE02E4008803EF4
:100D8E00F90004300310F90CFF3E031DC92E79083B
:100D9E000F390A128A111A230A128A1183120313A7
:100DAE004008803E0F390A128A111A230A128A113C
:100DBE00412F4103031DE42EE52E002F4008C03EB7
:100DCE00F90004300310F90CFF3E031DE92E7908DB
:100DDE000F390A128A111A230A128A118312031367
:100DEE004008C03E0F390A128A111A230A128A11BC
:100DFE00412F02304106031D052F062F212F4008DB
:100E0E00943EF90004300310F90CFF3E031D0A2F27
:100E1E0079080F390A128A111A230A128A118312BB
:100E2E0003134008943E0F390A128A111A230A122C
:100E3E008A11412F03304106031D262F272F412FE4
:100E4E004008D43EF90004300310F90CFF3E031D98
:100E5E002B2F79080F390A128A111A230A128A11B6
:100E6E00831203134008D43E0F390A128A111A2333
:100E7E000A128A1100300A128A1146210A128A11A8
:100E8E00831203133F0803194D2F4E2FE02FBD1B66
:100E9E00512F522FE02F3D08803A703E0318582FE5
:100EAE00592FE02F3E08031D5D2F5E2F792F3D0831
:100EBE00803EF90004300310F90CFF3E031D622F33
:100ECE0079080F390A128A111A230A128A1183120B
:100EDE0003133D08803E0F390A128A111A230A1293
:100EEE008A11DA2F3E03031D7D2F7E2F992F3D0889
:100EFE00C03EF90004300310F90CFF3E031D822F93
:100F0E0079080F390A128A111A230A128A118312CA
:100F1E0003133D08C03E0F390A128A111A230A1212
:100F2E008A11DA2F02303E06031D9E2F9F2FBA2FF5
:100F3E003D08943EF90004300310F90CFF3E031DEA
:100F4E00A32F79080F390A128A111A230A128A114D
:100F5E00831203133D08943E0F390A128A111A2385
:100F6E000A128A11DA2F03303E06031DBF2FC02F3F
:100F7E00DA2F3D08D43EF90004300310F90CFF3E81
:100F8E00031DC42F79080F390A128A111A230A1267
:100F9E008A11831203133D08D43E0F390A128A11A7
:100FAE001A230A128A1101300A128A1146210A12D4
:100FBE008A11080083133530FD000130FE00BC306D
:100FCE00FF00203084000A128A11AD210A128A1104
:100FDE00B501B601B701B801B901BA01BB01BC0137
:100FEE00BD01BE01BF01C001C10183010A128A11F8
:020FFE00782C4D
:04400E00F22FFF3F4F
:00000001FF
