:100000000A128A11FC2F00308A000408840A820731
:1000100000343F3406345B344F3466346D347D3401
:0600200007347F34673451
:100C9400F501F31F4E2E4F2E562EF209F309F20AD8
:100CA4000319F30A0130F500F11F592E5A2E5F2E55
:100CB400F009F109F00A0319F10A70087104031923
:100CC400642E652E922E0130F400712E0130031033
:100CD400F00DF10DFF3E031D692E0130F407F11FE5
:100CE400742E752E682E71087302031D7B2E7008F6
:100CF4007202031C7E2E7F2E852E7008F20271086C
:100D0400031CF303F30201300310F10CF00CFF3E5B
:100D1400031D862E0130F402031D912E922E752E92
:100D240075080319962E972E9C2EF209F309F20AE0
:100D34000319F30A7308F1007208F0000800FB01BC
:100D4400F71FA52EA62EAD2EF609F709F60A0319EC
:100D5400F70A0130FB00F91FB02EB12EB82EF809A6
:100D6400F909F80A0319F90A0130FB06FC01FD012F
:100D7400760877040319BF2EC02EF52E0130FA0031
:100D8400CC2E01300310F60DF70DFF3E031DC42ECB
:100D94000130FA07F71FCF2ED02EC32E01300310D7
:100DA400FC0DFD0DFF3E031DD12E77087902031DB6
:100DB400DD2E76087802031CE02EE12EE82E76085C
:100DC400F8027708031CF903F9027C1401300310BC
:100DD400F70CF60CFF3E031DE92E0130FA02031D49
:100DE400F42EF52ED02E7B080319F92EFA2EFF2EA1
:100DF400FC09FD09FC0A0319FD0A7D08F7007C08BB
:100E0400F600080083160313880187018312031375
:100E1400AC01AD01E830F6000330F7002D08F9000D
:100E24002C08F8000A128A11A1260A128A117708DE
:100E340083120313A3007608A2006430F600003086
:100E4400F7002D08F3002C08F200E830F00003301E
:100E5400F1000A128A114A260A128A117108F9004D
:100E64007008F8000A128A11A1260A128A1177085A
:100E740083120313A5007608A4000A30F60000309C
:100E8400F7002D08F3002C08F2006430F000003065
:100E9400F1000A128A114A260A128A117108F9000D
:100EA4007008F8000A128A11A1260A128A1177081A
:100EB40083120313A7007608A6000A30F00000305E
:100EC400F1002D08F3002C08F2000A128A114A26B8
:100ED4000A128A11710883120313A9007008A8006A
:100EE400AA01AB01F7308312031387002208013EE5
:100EF40084000A128A1103200A128A11880003301E
:100F040083120313A1009730A000A00B872FA10B1D
:100F1400872FFB308312031387002408013E8400CB
:100F24000A128A1103200A128A11880003308312DC
:100F34000313A1009730A000A00B9E2FA10B9E2F9E
:100F4400FD308312031387002608013E84000A1231
:100F54008A1103200A128A118800033083120313B2
:100F6400A1009730A000A00BB52FA10BB52FFE3028
:100F74008312031387002808013E84000A128A1191
:100F840003200A128A118800033083120313A1007C
:100F94009730A000A00BCC2FA10BCC2F01308312D3
:100FA4000313AA070318AB0A0030AB072B08803AD7
:100FB400FF0080307F02031DE12F0A302A02031C48
:100FC400E42FE52F742F013083120313AC070318A9
:100FD400AD0A0030AD0710302C06273003192D065A
:100FE400031DF52FF62F0C2FAC01AD010C2F0A12A7
:0C0FF4008A11002883010A128A11042FC0
:04400E00F22FFF3F4F
:00000001FF
