:060000000A128A110E280D
:10000800FE00030EF5000A08F6007F08F7000A1242
:100018008A11EC280A128A11112883010A128A11FE
:100028006E2883120313A501A31F1B281C2823284D
:10003800A209A309A20A0319A30A0130A500A11F56
:10004800262827282C28A009A109A00A0319A10AF3
:10005800200821040319312832285F280130A40020
:100068003E2801300310A00DA10DFF3E031D3628C8
:100078000130A407A11F412842283528210823025E
:10008800031D482820082202031C4B284C2852280C
:100098002008A2022108031CA303A30201300310B5
:1000A800A10CA00CFF3E031D53280130A402031D20
:1000B8005E285F28422825080319632864286928D0
:1000C800A209A309A20A0319A30A2308A100220866
:1000D800A000080083160317880189017F30831662
:1000E8000313810587018801FF30860083120313FB
:1000F80087018801A9018B108316031301130B16BE
:100108008B17831203132908013E84000A128A11EF
:1001180007210A128A1188000A30A0000030A100C5
:100128002908013EA200003003180130A3000A127A
:100138008A1115200A128A11831203132008A900B4
:10014800063083120313A8001330A700AD30A600B1
:10015800A60BAC28A70BAC28A80BAC2885280A123C
:100168008A110E28F301F4018312031307140630D1
:10017800F2001330F100AD30F000F00BC128F10BA4
:10018800C128F20BC128C8288312031307100630B0
:10019800F2001330F100AD30F000F00BD128F10B74
:1001A800D128F20BD128D8280130F3070318F40A14
:1001B8000030F4077408803AFF0080307F02031D86
:1001C800E72804307302031CEA28EB28B828080043
:1001D8008B1CEF28F028FE28831203130618F52835
:1001E800F628FE288B130A128A11B6200A128A11E1
:1001F8008B178B107708FF0076088A00750E83002E
:10020800FE0E7E0E090001308A000408840A820767
:1002180000343F3406345B344F3466346D347D34F7
:0602280007347F34673447
:04400E00F22FFF3F4F
:00000001FF
