:060000000A128A110C280F
:10000800FE00030EF2000A08F3000A128A11AF2953
:100018000A128A110F280A128A11DE210A128A117D
:10002800AF00AD01AE0183010A128A11CE280A3051
:1000380083120313A3000030A4002E08A6002D0885
:10004800A5000A128A1175210A128A118312031354
:100058002308A7000A30A3000030A4000A30F400E7
:100068000030F5002E08F7002D08F6000A128A1154
:1000780031210A128A11750883120313A600740825
:10008800A5000A128A1175210A128A118312031314
:100098002308A8000A30A3000030A4006430F4004C
:1000A8000030F5002E08F7002D08F6000A128A1114
:1000B80031210A128A11750883120313A6007408E5
:1000C800A5000A128A1175210A128A1183120313D4
:1000D8002308A900E830F4000330F5002E08F700E3
:1000E8002D08F6000A128A1131210A128A117408A1
:1000F80083120313AA00F73087002A08013E840000
:100108000A128A11CE210A128A118800C730F90012
:100118008D28F90B8C2890289128FB308312031323
:1001280087002908013E84000A128A11CE210A128A
:100138008A118800C730F900A128F90BA028A42843
:10014800A528FD308312031387002808013E840088
:100158000A128A11CE210A128A118800C730F900C2
:10016800B528F90BB428B828B928FE308312031330
:1001780087002708013E84000A128A11CE210A123C
:100188008A118800C730F900C928F90BC828CC287B
:10019800CD28080083160317880189017F3083164C
:1001A80003138105FF30860087018801FF30831221
:1001B80003138600870188018B108316031301132C
:1001C8000B168B178312AB01AC010A128A111B2084
:1001D8000A128A11013083120313AB070318AC0A01
:1001E8000030AC072C08803AFF0080307F02031DE6
:1001F800FF280A302B02031C02290329E92883124D
:1002080003132F08031909290A291C290130AD07EE
:100218000318AE0A0030AE0710302D062730031938
:100228002E06031D18291929E628AD01AE01E62876
:100238002D082E04031D2129222927290F30AD005E
:100248002730AE00E6280130AD020030031CAE03B3
:10025800AE02E6280A128A110C2883120313A001A1
:10026800A1017408750403193A293B297029013042
:10027800A200472901300310F40DF50DFF3E031DC0
:100288003F290130A207F51F4A294B293E29013091
:100298000310A00DA10DFF3E031D4C297508770220
:1002A800031D582974087602031C5B295C296329FD
:1002B8007408F6027508031CF703F70220140130CE
:1002C8000310F50CF40CFF3E031D64290130A20253
:1002D800031D6F2970294B292108F5002008F40017
:1002E8000800831203132308240403197C297D2999
:1002F800AA290130F800892901300310A30DA40DA3
:10030800FF3E031D81290130F807A41F8C298D2980
:10031800802924082602031D932923082502031C8B
:10032800962997299D292308A5022408031CA603BA
:10033800A60201300310A40CA30CFF3E031D9E2946
:100348000130F802031DA929AA298D292608A4002D
:100358002508A30008008B1CB229B329C7298B10D4
:100368008230F100DD30F000F00BB829F10BB8292C
:10037800BD29831203132F080319C329C529013086
:10038800C6290030AF0073088A00720E8300FE0E83
:100398007E0E090001308A000408840A82070034AE
:1003A8003F3406345B344F3466346D347D3407345F
:0603B8007F3467340134BC
:04400E00F22FFF3F4F
:00000001FF
