:060000000A128A11EE2F26
:100F20003F3406345B344F3466346D347D340734DB
:100F30007F346F3400340034003400340034003423
:100F40007E088A007F0882000A128A11A0270A12EE
:100F50008A118000840A04087D0603190034FF0A00
:100F60000319FE0AA42F831603138801313084006D
:100F70002030F0001030F10083130008F200040A62
:100F8000F3007008840072088000040AF0007308FF
:100F90008400F10BBC2F8312B0013008203E840086
:100FA0008313000888000630F2001330F100AD30E2
:100FB000F000F00BD92FF10BD92FF20BD92FE02F26
:100FC000013083120313B0070A303002031CE92FEB
:100FD000EA2FCD2FCB2F0A128A110028831341301C
:100FE000FD000730FE009030FF00313084000A120F
:100FF0008A11A4270A128A1183010A128A11B32FB7
:04400E00F22FFF3F4F
:00000001FF
