:060000000A128A11F02F24
:100E720001340134831603130711FF3092000C3042
:100E82008312031397000430920008000130831686
:100E92000317880089010130831203139F008030F9
:100EA200831603139F000800F30083308312031399
:100EB2009F057308F20001300310F20DFF3E031D7F
:100EC2005D2F0310720D9F042130F200F20B672F89
:100ED200831203139F149F186F2F702F6C2F1E08FD
:100EE200F100831603131E08F00008007108F300D6
:100EF2007008F2000310F30CF20C0310F30CF20C66
:100F020072088312031395007108F3007008F2004F
:100F12000310F30CF20C72080139F400F40EF40D14
:100F220017087406DF397406970070080139F20059
:100F3200F20E17087206EF397206970008000A12BD
:100F42008A1147270A128A110A128A113B270A12AA
:100F52008A1183160313061486140611861181134F
:100F6200831203130611861100300A128A115527C3
:100F72000A128A117108F6007008F5007608F1006D
:100F82007508F0000A128A1177270A128A1178036B
:100F9200031DCC2FCD2FD52F831203130618D22F6A
:100FA200D32FD52F061586117703031DD92FDA2FDC
:100FB200E22F831203138618DF2FE02FE22F061190
:100FC200861500308312031306180130F800003032
:100FD20086180130F700B52F0A128A1100280A126A
:100FE2008A1139270A128A11F7000A128A113A273E
:0E0FF2000A128A11F80083010A128A11A02F38
:04400E00F22FFF3F4F
:00000001FF
