:100000000A128A11CD2F073400341A342C343E34AE
:100010000130831603178800890183160313010832
:100020007F3981008130831203139F008030831653
:1000300003139F0008007008710403192028212869
:100040004E280130F4002D2801300310F00DF10D81
:10005000FF3E031D25280130F407F11F3028312809
:10006000242871087302031D372870087202031CCC
:100070003A283B2841287008F2027108031CF30358
:10008000F30201300310F10CF00CFF3E031D422877
:100090000130F402031D4D284E2831287308F10069
:1000A0007208F0000800FB01FC0178287B08760745
:1000B000F9007708F8000318F80AFB1F6028F80316
:1000C0007808FA007A0883120313FF007908840085
:1000D0000A128A1500200A128A110A128A114E2366
:1000E0000A128A110130FB070318FC0A0030FC07D2
:1000F0007B087607F9007708F8000318F80AFB1F59
:100100008228F8037808FA007A0883120313FF00A4
:10011000790884000A128A1500200A128A11003A0E
:10012000031D9328942856280800F401F50170084F
:10013000710403199C289D28D2280130F600A928B3
:1001400001300310F00DF10DFF3E031DA128013019
:10015000F607F11FAC28AD28A02801300310F40DDC
:10016000F50DFF3E031DAE2871087302031DBA286A
:1001700070087202031CBD28BE28C5287008F20250
:100180007108031CF303F302741401300310F10C23
:10019000F00CFF3E031DC6280130F602031DD128D6
:1001A000D228AD287508F1007408F000080000306E
:1001B000FC000030FB000030FA000030F900701C39
:1001C000E228E328FA287408F907750803110318D0
:1001D000013E0319EC28FA07760803110318013EC3
:1001E0000319F328FB07770803110318013E0319CD
:1001F000FA28FC070130F8000310F40DF50DF60D98
:10020000F70DF80BFC2801300310F30CF20CF10C85
:10021000F00CFF3E031D042973087204710470047E
:10022000031D13291429DF287C08F3007B08F20042
:100230007A08F1007908F00008007308720471046C
:10024000700403192429252966290130F90033296E
:100250000130F8000310F00DF10DF20DF30DF80B65
:100260002A290130F907F31F36293729282973086D
:100270007702031D452972087602031D452971087E
:100280007502031D452970087402031C4829492979
:1002900057297008F4027108031C710FF5027208E7
:1002A000031C720FF6027308031C730FF702013070
:1002B0000310F30CF20CF10CF00CFF3E031D582957
:1002C0000130F902031D6529662937297708F300F3
:1002D0007608F2007508F1007408F0000800F901D2
:1002E000FA01760884008313000884000A128A1534
:1002F0000A200A128A112A3A031D7F298029AC2973
:100300007608840001308007770884000008FF0029
:10031000023080077F0884000008F900840A000882
:10032000FA00BD297A08F1007908F0000A30F200DD
:100330000030F3000A128A15B0270A128A117808D1
:100340007007F9000030031801307107FA007608D1
:10035000840001308313800776088400000884003D
:100360000A128A150A200A128A11D03EF8000A30B1
:100370007802031CBC29BD2992297A08F700790864
:10038000F600080083120313671CC729C829D32964
:100390002A08A0002808A1002908A2000A128A152C
:1003A000D5270A128A1183120313AC1FD829D92921
:1003B000DB29AB01AC01AD01AE01F5292030F00025
:1003C0000030F100831203132808F2002908F3001B
:1003D0000A128A11E2230A128A11013083120313CE
:1003E000AD070318AE0A0030AE072E08803AFD00B4
:1003F0002C08803A7D02031DFF292B082D02031CC7
:10040000022A032ADE29831203136718082A092AFD
:10041000142A2A08A0002808A1002908A2000A120C
:100420008A15D5270A128A110800F50083120313D2
:100430005E08840083175F1C83130130F30060089B
:100440000739013E252A0310F30DFF3E031D232A21
:100450007308FF3A800575080A128A11DB250A1213
:100460008A11831203135E08840083175F1C8313B1
:100470000130F300600CF400F40C740C0739013EF9
:10048000432A0310F30DFF3E031D412A7308800425
:100490000B30F4006230F300F30B4C2AF40B4C2ABF
:1004A0000000831203135E08840083175F1C83130C
:1004B0000130F300600CF400F40C740C0739013EB9
:1004C000632A0310F30DFF3E031D612A7308FF3AF0
:1004D00080050800003083120313AB000030AA002F
:1004E0000030A9000030A8002308220421042004C1
:1004F00003197B2A7C2AC72A0130AC008A2A0130E2
:10050000FD000310A00DA10DA20DA30DFD0B812A6E
:100510000130AC07A31F8D2A8E2A7F2A0130FD00EF
:100520000310A80DA90DAA0DAB0DFD0B902A2308F1
:100530002702031DA52A22082602031DA52A210839
:100540002502031DA52A20082402031CA82AA92A83
:10055000B82A2008A4022108031C210FA5022208A2
:10056000031C220FA6022308031C230FA702281432
:1005700001300310A30CA20CA10CA00CFF3E031D24
:10058000B92A0130AC02031DC62AC72A8E2A2B08BD
:10059000A3002A08A2002908A1002808A00008003A
:1005A000013083120313B3006408B5006308B4007C
:1005B0001F30B6000030B70083160313BF01162B9F
:1005C000FF30B6070318B70AFF30B7073608A03E5A
:1005D00084000A30F0000030F1003208F3003108E6
:1005E000F2000A128A111B200A128A117008303E8A
:1005F0008313800083120313B301FF30B407031881
:10060000B50AFF30B5070A30F0000030F1003208BB
:10061000F3003108F2000A128A1195200A128A1199
:10062000710883120313B2007008B10083123608F8
:10063000370403191C2B1D2B3B2B31083204031DDF
:10064000222B232BE02A3308031D272B282BE02AFB
:100650003508803AFF0080307F02031D312B0130C6
:100660003402031C342B352B3B2B83120313E71866
:100670003A2B3B2BE02A831203132F08A8003008E3
:10068000A9003608A03EAA003508AC003408AB002B
:100690000A128A11C2210A128A110800F500831277
:1006A00003135E08840083175F1C83130130F3007B
:1006B00060080739013E5E2B0310F30DFF3E031D5A
:1006C0005C2B730880047508F30004300310F30CEE
:1006D000FF3E031D662B73080F390A128A11DB25B2
:1006E0000A128A11831203135E08840083175F1CA9
:1006F00083130130F300600CF400F40C740C073920
:10070000013E842B0310F30DFF3E031D822B730863
:1007100080041A30F300F30B8B2B000083120313B9
:100720005E08840083175F1C83130130F300600CA4
:10073000F400F40C740C0739013EA02B0310F30DE8
:10074000FF3E031D9E2B7308FF3A800575080F3985
:100750000A128A11DB250A128A11831203135E081A
:10076000840083175F1C83130130F300600CF400D6
:10077000F40C740C0739013EBF2B0310F30DFF3E40
:10078000031DBD2B730880041A30F300F30BC62B36
:100790000000831203135E08840083175F1C831319
:1007A0000130F300600CF400F40C740C0739013EC6
:1007B000DB2B0310F30DFF3E031DD92B7308FF3A0B
:1007C00080050800720873040319E72BE82BEE2B51
:1007D00072087304031DED2BEE2BF52B70080A1223
:1007E0008A154F270A128A117B2C7208093EF400E1
:1007F00073080318013E003EF50074088400831757
:10080000751C83130008F600840A0008F7007608B8
:10081000770403190C2C0D2C3F2C7208093EF400B0
:1008200073080318013E003EF50074088400831726
:10083000751C83130008F600840A0008F70072088C
:10084000023EF80073080318013E003EF9007808E4
:1008500084008317791C83130008FA00840A0008B7
:10086000FB007B08803AFC007708803A7C02031D7D
:100870003B2C76087A0203183E2C3F2C7B2C720806
:1008800084008317731C83130008F400840A000893
:10089000F5007208023EF60073080318013E003EA0
:1008A000F700760884008317771C83130008740709
:1008B000F9007508F8000318F80A801F602CF80387
:1008C0007808FA007908840083177A1C831370086B
:1008D00080007208023EF40073080318013E003ED7
:1008E000F500740884008317751C8313013080079A
:1008F000840A0318800A08005E3084007608831397
:100900008000840A77088000840A78088000840ABE
:1009100079088000840A7A0880000030831203136B
:100920005F06031D952C05305E06031D982C992C3F
:100930009D2C831603138501B82C00305F06031D20
:10094000A32C06305E06031DA62CA72CAB2C831609
:1009500003138601B82C00305F06031DB12C07304D
:100960005E06031DB42CB52C282D831603138701B6
:100970003430FC00F130FB00FB0BBC2CFC0BBC2C1E
:10098000C12C03300A128A1115220A128A110D3065
:10099000FC00FB30FB00FB0BCB2CFC0BCB2CD02C3E
:1009A00003300A128A1115220A128A112A30FC0019
:1009B0008D30FB00FB0BDA2CFC0BDA2CDF2C033028
:1009C0000A128A1115220A128A1102300A128A1199
:1009D00015220A128A1102300A128A1115220A12ED
:1009E0008A1108300A128A1115220A128A1100305F
:1009F0000A128A1115220A128A1106300A128A1165
:100A000015220A128A110830FD007D157D08FB00B1
:100A100004300310FB0CFF3E031D092D7B080F392A
:100A20000A128A1115220A128A117D080F390A1238
:100A30008A1115220A128A1100300A128A1115220F
:100A40000A128A1101300A128A1115220A128A1119
:100A50000800831203133A088400831300088400FB
:100A60000A128A150A200A128A11253A031D392D05
:100A70003A2DC12D3A08840001308007E301E401DA
:100A80000030E700FF30E500FF30E600C2015E2DD8
:100A9000E7143A088400013080075E2D0130C2005F
:100AA0005E2D3A088400000884000A128A150A2084
:100AB0000A128A11303A0319482D4E2D42080319A3
:100AC000622D632D512D3A08F6003B08F7000A12FB
:100AD0008A116F210A128A11770883120313E40026
:100AE0007608E300E41F752D762D7C2D6714E3094D
:100AF000E409E30A0319E40A3A08840083130008AE
:100B0000C300430884000A128A150A200A128A11B7
:100B1000753A031D8C2D8D2DB92D3B0884000008DE
:100B2000FF00023080077F0884000008BE00840AAE
:100B30000008BF003A0884004308013E8000AE2D43
:100B40003808AF003908B0003F08B2003E08B100D5
:100B50000A128A11D0220A128A11DA2D430884005F
:100B60000A128A150A200A128A11753A0319A02D51
:100B7000B92D831203133A088400013083138007D0
:100B8000DA2D3A088400000884000A128A150A2027
:100B90000A128A11BC00BD013C08F0003D08F100BA
:100BA0003808F2003908F3000A128A11E2230A1207
:100BB0008A11B92D0800F200721CDF2DE02DF52DF1
:100BC000831203135E08840083175F1C83130130B4
:100BD000F00061080739013EEF2D0310F00DFF3ED4
:100BE000031DED2D700880040A2E831203135E0886
:100BF000840083175F1C83130130F00061080739FC
:100C0000013E042E0310F00DFF3E031D022E70085E
:100C1000FF3A8005F21C0D2E0E2E242E5E08840055
:100C200083175F1C83130130F000610CF100F10C9D
:100C3000710C0739013E1E2E0310F00DFF3E031DFF
:100C40001C2E700880043A2E5E08840083175F1CF7
:100C500083130130F000610CF100F10C710C0739C5
:100C6000013E342E0310F00DFF3E031D322E70089E
:100C7000FF3A8005721D3D2E3E2E512E5E088400E7
:100C800083175F1C83130130F00062080739013EAF
:100C90004B2E0310F00DFF3E031D492E70088004FB
:100CA000642E5E08840083175F1C83130130F000FC
:100CB00062080739013E5E2E0310F00DFF3E031D52
:100CC0005C2E7008FF3A8005F21D672E682E7E2E7E
:100CD0005E08840083175F1C83130130F000620CF0
:100CE000F100F10C710C0739013E782E0310F00D64
:100CF000FF3E031D762E70088004942E5E0884004B
:100D000083175F1C83130130F000620CF100F10CBB
:100D1000710C0739013E8E2E0310F00DFF3E031DAE
:100D20008C2E7008FF3A800508000A128A110820EC
:100D30000A128A11831603130614D030840083121A
:100D40000313680883138000840A69088000840AFA
:100D50006A088000840A6B088000840A6C0880009E
:100D6000763084008316031350088000840A5108EB
:100D70008000840A52088000840A53088000840A94
:100D8000540880000A128A117C240A128A110A125D
:100D90008A1558270A128A11710883160313D60080
:100DA0007008D50000300A128A1115220A128A1121
:100DB00001300A128A1115220A128A110030831298
:100DC0000313A3000030A2000330A100FF30A000F5
:100DD000831603135508F0005608F100F201F301E1
:100DE0000030F7000030F6001330F5008830F400D2
:100DF0000A128A11D7200A128A1173088312031368
:100E0000A7007208A6007108A5007008A4000A12C5
:100E10008A116A220A128A11831203132308831685
:100E20000313DE0083120313220883160313DD006D
:100E300083120313210883160313DC0083120313A8
:100E4000200883160313DB00003083120313A30072
:100E50000030A2000330A100E830A0008316031385
:100E60005E0883120313A700831603135D08831221
:100E70000313A600831603135C0883120313A50053
:100E8000831603135B0883120313A4000A128A114A
:100E90006A220A128A11831203132108831603138C
:100EA000D80083120313200883160313D7000030E1
:100EB000F3000030F2000330F100E830F0005E088B
:100EC000F7005D08F6005C08F5005B08F4000A1204
:100ED0008A111D210A128A11710883160313DA0080
:100EE0007008D90008300A128A1115220A128A11D4
:100EF00000300A128A1115220A128A110B30F600EC
:100F00008030F7000A128A1153200A128A11C03069
:100F100083120313C9000130CA0083160313580853
:100F200083120313CC008316031357088312031391
:100F3000CB00831603135A0883120313CE008316C3
:100F40000313590883120313CD000A128A158D2743
:100F50000A128A110C300A128A1115220A128A11F9
:100F600000300A128A1115220A128A11C030F600C6
:100F70000030F7000A128A1153200A128A11D03069
:100F800083120313DD00C930DC00DC0BC52FDD0B41
:100F9000C52FC72E0A128A1100280A128A110320AF
:100FA0000A128A11E8000A128A1104200A128A1110
:100FB000E9000A128A1105200A128A11EA000A12AF
:100FC0008A1106200A128A11EB000A128A110720E0
:100FD0000A128A11EC008313A0308400C0300A1278
:100FE0008A1550270A128A115E30840068300A126E
:100FF0008A1550270A128A1183010A128A11952E26
:10100000FF1B0A2883137F1883170008840A03191B
:10101000FF0A080008308A000408840A82070034A6
:10102000253475342E34253430343334753420343B
:101030005634003456346F346C34743461346A344A
:0610400065343A3400346F
:101E9E00080064008001840A040603190034040655
:101EAE00512F0330F200F20B5A2F831203139F149B
:101EBE009F18622F632F5F2F1E08F10083160313E6
:101ECE001E08F0000800831203134608C8007C2F7A
:101EDE004408B8004508B9004830BA004708BB00AE
:101EEE000A128A1129250A128A1583120313480829
:101EFE0084000A128A150A200A128A15003A031D56
:101F0E00892F8A2F6F2FC401C50108004B30831211
:101F1E000313D0004908D1000030D200D301D40100
:101F2E00DA01DB015130C4000030C5004A08C6009A
:101F3E005030C7000A128A156A270A128A158312B0
:101F4E00031353084907CF004F0884008313800101
:101F5E000800F401F501701CB52FB62FBC2F7208C6
:101F6E00F4070318F50A7308F50701300310F20D94
:101F7E00F30DFF3E031DBD2F01300310F10CF00CCD
:101F8E00FF3E031DC42F70087104031DCF2FD02FE9
:101F9E00B22F7508F1007408F000080083120313C5
:101FAE00A601A701F22F2508A300A4012308F00023
:101FBE002408F1002108F2002208F3000A128A1107
:101FCE00E2230A128A15013083120313A60703189F
:101FDE00A70A0030A70726082007A30023088400BD
:101FEE0083130008A5002508031DFE2FFF2FDA2FEF
:021FFE000800D9
:04400E00F22FFF3F4F
:00000001FF
