:060000000A128A11CD2F47
:10000A00080064008001840A040603190034040607
:10001A0007280030FC000030FB000030FA000030F6
:10002A00F900701C19281A2831287408F90775086C
:10003A0003110318013E03192328FA07760803114E
:10004A000318013E03192A28FB077708031103182E
:10005A00013E03193128FC070130F8000310F40DA2
:10006A00F50DF60DF70DF80B332801300310F30CDC
:10007A00F20CF10CF00CFF3E031D3B2873087204CE
:10008A0071047004031D4A284B2816287C08F300C3
:10009A007B08F2007A08F1007908F0000800F901FB
:1000AA00FA01760884008313000884000A128A156C
:1000BA000A200A128A112A3A031D642865289128FF
:1000CA007608840001308007770884000008FF0062
:1000DA00023080077F0884000008F900840A0008BB
:1000EA00FA00A2287A08F1007908F0000A30F20032
:1000FA000030F3000A128A15A2260A128A11780819
:10010A007007F9000030031801307107FA00760809
:10011A008400013083138007760884000008840075
:10012A000A128A150A200A128A11D03EF8000A30E9
:10013A007802031CA128A22877287A08F7007908F0
:10014A00F600080083120313671CAC28AD28B828F0
:10015A002A08A0002808A1002908A2000A128A1564
:10016A00C7260A128A1183120313AC1FBD28BE28A0
:10017A00C028AB01AC01AD01AE01DA282030F00095
:10018A000030F100831203132808F2002908F30053
:10019A000A128A11C5220A128A1101308312031324
:1001AA00AD070318AE0A0030AE072E08803AFD00EC
:1001BA002C08803A7D02031DE4282B082D02031C1B
:1001CA00E728E828C328831203136718ED28EE28C6
:1001DA00F9282A08A0002808A1002908A2000A1262
:1001EA008A15C7260A128A110800F500831203131A
:1001FA005E08840083175F1C83130130F3006008D4
:10020A000739013E0A290310F30DFF3E031D082991
:10021A007308FF3A800575080A128A110B240A121C
:10022A008A11831203135E08840083175F1C8313E9
:10023A000130F300600CF400F40C740C0739013E31
:10024A0028290310F30DFF3E031D26297308800495
:10025A000630F4003030F300F30B3129F40B312966
:10026A000000831203135E08840083175F1C831344
:10027A000130F300600CF400F40C740C0739013EF1
:10028A0048290310F30DFF3E031D46297308FF3A60
:10029A0080050800003083120313AB000030AA0067
:1002AA000030A9000030A8002308220421042004F9
:1002BA00031960296129AC290130AC006F2901308A
:1002CA00FD000310A00DA10DA20DA30DFD0B6629C3
:1002DA000130AC07A31F7229732964290130FD007C
:1002EA000310A80DA90DAA0DAB0DFD0B7529230846
:1002FA002702031D8A2922082602031D8A292108AA
:10030A002502031D8A2920082402031C8D298E290F
:10031A009D292008A4022108031C210FA5022208F6
:10032A00031C220FA6022308031C230FA70228146A
:10033A0001300310A30CA20CA10CA00CFF3E031D5C
:10034A009E290130AC02031DAB29AC2973292B0865
:10035A00A3002A08A2002908A1002808A000080072
:10036A00013083120313B3006408B5006308B400B4
:10037A001F30B6000030B70083160313E201FB29D1
:10038A00FF30B6070318B70AFF30B7073608C33E6F
:10039A0084000A30F0000030F1003208F30031081E
:1003AA00F2000A128A15F2260A128A117008303EE1
:1003BA008313800083120313B301FF30B4070318B9
:1003CA00B50AFF30B5070A30F0000030F1003208F4
:1003DA00F3003108F2000A128A156C270A128A11F0
:1003EA00710883120313B2007008B1008312360831
:1003FA0037040319012A022A202A31083204031D6C
:10040A00072A082AC5293308031D0C2A0D2AC529DB
:10041A003508803AFF0080307F02031D162A01301A
:10042A003402031C192A1A2A202A83120313E718F2
:10043A001F2A202AC529831203132F08A80030086F
:10044A00A9003608C33EAA003508AC003408AB0040
:10045A000A128A11A7200A128A110800F5008312CB
:10046A0003135E08840083175F1C83130130F300B3
:10047A0060080739013E432A0310F30DFF3E031DAE
:10048A00412A730880047508F30004300310F30C42
:10049A00FF3E031D4B2A73080F390A128A110B24D7
:1004AA000A128A11831203135E08840083175F1CE1
:1004BA0083130130F300600CF400F40C740C073958
:1004CA00013E692A0310F30DFF3E031D672A7308D4
:1004DA0080040D30F300F30B702A831203135E08B5
:1004EA00840083175F1C83130130F300600CF4004F
:1004FA00F40C740C0739013E842A0310F30DFF3EF5
:10050A00031D822A7308FF3A800575080F390A12FB
:10051A008A110B240A128A11831203135E088400BB
:10052A0083175F1C83130130F300600CF400F40C92
:10053A00740C0739013EA32A0310F30DFF3E031D75
:10054A00A12A730880040D30F300F30BAA2A831240
:10055A0003135E08840083175F1C83130130F300C2
:10056A00600CF400F40C740C0739013EBE2A031027
:10057A00F30DFF3E031DBC2A7308FF3A80050800ED
:10058A00720873040319CA2ACB2AD12A720873047F
:10059A00031DD02AD12AD82A70080A128A110520E6
:1005AA000A128A115E2B7208093EF40073080318B6
:1005BA00013E003EF500740884008317751C8313FE
:1005CA000008F600840A0008F70076087704031981
:1005DA00EF2AF02A222B7208093EF4007308031846
:1005EA00013E003EF500740884008317751C8313CE
:1005FA000008F600840A0008F7007208023EF800B4
:10060A0073080318013E003EF90078088400831736
:10061A00791C83130008FA00840A0008FB007B088F
:10062A00803AFC007708803A7C02031D1E2B76086C
:10063A007A020318212B222B5E2B7208840083175F
:10064A00731C83130008F400840A0008F50072087A
:10065A00023EF60073080318013E003EF7007608D2
:10066A0084008317771C831300087407F900750840
:10067A00F8000318F80A801F432BF8037808FA00D9
:10068A007908840083177A1C831370088000720823
:10069A00023EF40073080318013E003EF500740898
:1006AA0084008317751C831301308007840A03189A
:1006BA00800A08005E308400760883138000840A6A
:1006CA0077088000840A78088000840A7908800004
:1006DA00840A7A0880000030831203135F06031D20
:1006EA00782B05305E06031D7B2B7C2B802B831613
:1006FA00031385019B2B00305F06031D862B0630F2
:10070A005E06031D892B8A2B8E2B83160313860103
:10071A009B2B00305F06031D942B07305E06031DDA
:10072A00972B982B0A2C8316031387011A30FC0087
:10073A00F830FB00FB0B9F2BFC0B9F2B00000330B8
:10074A000A128A11FA200A128A110730FC007D3037
:10075A00FB00FB0BAE2BFC0BAE2B03300A128A11EB
:10076A00FA200A128A111530FC00C630FB00FB0B76
:10077A00BC2BFC0BBC2B000003300A128A11FA2096
:10078A000A128A1102300A128A11FA200A128A11EE
:10079A0002300A128A11FA200A128A1108300A1241
:1007AA008A11FA200A128A1100300A128A11FA20D2
:1007BA000A128A1106300A128A11FA200A128A11BA
:1007CA000830FD007D157D08FB0004300310FB0C8A
:1007DA00FF3E031DEB2B7B080F390A128A11FA2000
:1007EA000A128A117D080F390A128A11FA200A128E
:1007FA008A1100300A128A11FA200A128A1101306B
:10080A000A128A11FA200A128A110800F200721CCE
:10081A000F2C102C252C831203135E0884008317D7
:10082A005F1C83130130F00061080739013E1F2C59
:10083A000310F00DFF3E031D1D2C700880043A2C96
:10084A00831203135E08840083175F1C831301302D
:10085A00F00061080739013E342C0310F00DFF3E09
:10086A00031D322C7008FF3A8005F21C3D2C3E2CE9
:10087A00542C5E08840083175F1C83130130F00038
:10088A00610CF100F10C710C0739013E4E2C03107A
:10089A00F00DFF3E031D4C2C700880046A2C5E0884
:1008AA00840083175F1C83130130F000610CF10090
:1008BA00F10C710C0739013E642C0310F00DFF3E58
:1008CA00031D622C7008FF3A8005721D6D2C6E2C78
:1008DA00812C5E08840083175F1C83130130F000AB
:1008EA0062080739013E7B2C0310F00DFF3E031D01
:1008FA00792C70088004942C5E08840083175F1C8E
:10090A0083130130F00062080739013E8E2C031070
:10091A00F00DFF3E031D8C2C7008FF3A8005F21D76
:10092A00972C982CAE2C5E08840083175F1C8313C7
:10093A000130F000620CF100F10C710C0739013E34
:10094A00A82C0310F00DFF3E031DA62C700880048E
:10095A00C42C5E08840083175F1C83130130F000E7
:10096A00620CF100F10C710C0739013EBE2C031028
:10097A00F00DFF3E031DBC2C7008FF3A80050800ED
:10098A00831203133A0884008313000884000A12AE
:10099A008A150A200A128A11253A031DD52CD62C4B
:1009AA007D2D3A08840001308007E301E40100301C
:1009BA00E700FF30E500FF30E600C201FA2CE71439
:1009CA003A08840001308007FA2C0130C200FA2C60
:1009DA003A088400000884000A128A150A200A12BA
:1009EA008A11303A0319E42CEA2C42080319FE2C26
:1009FA00FF2CED2C3A08F6003B08F7000A128A1180
:100A0A0054200A128A11770883120313E400760825
:100A1A00E300E41F112D122D182D6714E309E409D0
:100A2A00E30A0319E40A3A08840083130008C3009E
:100A3A00430884000A128A150A200A128A11753A92
:100A4A00031D282D292D552D3B0884000008FF0081
:100A5A00023080077F0884000008BE00840A00086C
:100A6A00BF003A0884004308013E80004A2D380836
:100A7A00AF003908B0003F08B2003E08B1000A12C0
:100A8A008A11B5210A128A11962D430884000A1286
:100A9A008A150A200A128A11753A03193C2D552D16
:100AAA003A088400000884000A128A150A200A12E9
:100ABA008A11253A031D622D632D752D3A0884008B
:100ACA00013080072530F0000030F1003808F200CC
:100ADA003908F3000A128A11C5220A128A11962DC0
:100AEA00831203133A088400013083138007962D7A
:100AFA003A088400000884000A128A150A200A1299
:100B0A008A11BC00BD013C08F0003D08F10038081C
:100B1A00F2003908F3000A128A11C5220A128A1150
:100B2A00752D08000A128A1549260A128A11831697
:100B3A0003130614B0308400831203136808831366
:100B4A008000840A69088000840A6A088000840A8E
:100B5A006B088000840A6C08800076308400831653
:100B6A00031330088000840A31088000840A32089E
:100B7A008000840A33088000840A340880000A123C
:100B8A008A115F230A128A1183160313C0010130E6
:100B9A00BB00831203130618D32DD42D052E8316FA
:100BAA0003133B080319DA2DDB2D052E343083128B
:100BBA000313DD00F130DC00DC0BE12DDD0BE12D50
:100BCA00831203130618EA2DEB2D052E0130831626
:100BDA000313C00703304002031CF42DF52DF62D34
:100BEA00C0018312061CFA2DFB2DF62D3430831218
:100BFA000313DD00F130DC00DC0B012EDD0B012ECE
:100C0A00831203130608013983160313BB000A1261
:100C1A008A1537260A128A11710883160313C2002D
:100C2A007008C10000300A128A11FA200A128A11C9
:100C3A0001300A128A11FA200A128A11B22F0030E0
:100C4A0083120313A3000030A2000330A100FF3077
:100C5A00A000831603134108F0004208F100F201D4
:100C6A00F3010030F7000030F6001330F500883049
:100C7A00F4000A128A110E200A128A1173088312CA
:100C8A000313A7007208A6007108A5007008A40043
:100C9A000A128A114F210A128A1183120313230896
:100CAA0083160313BF008312031322088316031348
:100CBA00BE0083120313210883160313BD00831297
:100CCA000313200883160313BC0000308312031396
:100CDA00A3000030A2000330A100E830A000831670
:100CEA0003133F0883120313A700831603133E0856
:100CFA0083120313A600831603133D0883120313FA
:100D0A00A500831603133C0883120313A4000A12D6
:100D1A008A114F210A128A1183120313210883169A
:100D2A000313B60083120313200883160313B500B6
:100D3A000030F3000030F2000330F100E830F00038
:100D4A003F08F7003E08F6003D08F5003C08F400AD
:100D5A000A128A15AE270A128A117108831603131A
:100D6A00B8007008B70008300A128A11FA200A126D
:100D7A008A1100300A128A11FA200A128A111730CF
:100D8A00F6008030F7000A128A152A270A128A11F9
:100D9A00A03083120313C9000D30CA00831603134F
:100DAA00360883120313CC00831603133508831203
:100DBA000313CB0083160313380883120313CE00E0
:100DCA0083160313370883120313CD000A128A15F8
:100DDA007F260A128A110C300A128A11FA200A1284
:100DEA008A1100300A128A11FA200A128A11A030D6
:100DFA00F6000030F7000A128A152A270A128A1109
:100E0A00BF2F08300A128A11FA200A128A110030FA
:100E1A000A128A11FA200A128A112630F600803044
:100E2A00F7000A128A152A270A128A11A030831299
:100E3A000313C9002B30CA00831603134208831216
:100E4A000313CC0083160313410883120313CB0048
:100E5A000A128A157F260A128A110C300A128A117E
:100E6A00FA200A128A1100300A128A11FA200A128A
:100E7A008A11FC2E003083120313A3000030A20053
:100E8A000330A100FF30A000831603134108F000CD
:100E9A004208F100F201F3010030F7000030F600D9
:100EAA000030F5006430F4000A128A110E200A128A
:100EBA008A11730883120313A7007208A600710827
:100ECA00A5007008A4000A128A114F210A128A1179
:100EDA0083120313210883160313BA008312031320
:100EEA00200883160313B90008300A128A11FA205F
:100EFA000A128A1100300A128A11FA200A128A1179
:100F0A000130F6008030F7000A128A152A270A12E1
:100F1A008A11A03083120313C9002030CA00831635
:100F2A0003133A0883120313CC00831603133908F8
:100F3A0083120313CB000A128A157F260A128A111A
:100F4A000C300A128A11FA200A128A1100300A1287
:100F5A008A11FA200A128A11FC2E831603134008FA
:100F6A00003A0319242E013A0319062F033A0319EA
:100F7A003F2FBF2FD03083120313DD00C930DC00AE
:100F8A00DC0BC52FDD0BC52FCE2D0A128A110028C6
:100F9A000A128A1532260A128A11E8000A128A15DA
:100FAA0033260A128A11E9000A128A1534260A120D
:100FBA008A11EA000A128A1535260A128A11EB00EA
:100FCA000A128A1536260A128A11EC008313C330D4
:100FDA008400E3300A128A1106200A128A115E304E
:100FEA00840068300A128A1106200A128A118301C3
:100FFA000A128A11972DFF1B0A2883137F18831759
:10100A000008840A0319FF0A080008308A00040845
:10101A00840A8207003450346F347234633465347E
:10102A006E34743461346A3465343A3400342534A5
:10103A0075342E34253430343334753420345634F0
:10104A00003456346F346C34743461346A34653421
:10105A003A340034253475342034253425340034A8
:10106A004134443443343A3400342534753400343A
:101C6400073400341A342C343E340330F200F20BBF
:101C7400392E831203139F149F18412E422E3E2E99
:101C84001E08F100831603131E08F000080001303B
:101C940083160317880089018316031301087F390B
:101CA40081008130831203139F0080308316031355
:101CB4009F000800831203134608C8006E2E4408D0
:101CC400B8004508B9004830BA004708BB000A12FA
:101CD4008A11C5240A128A15831203134808840042
:101CE4000A128A150A200A128A15003A031D7B2E4D
:101CF4007C2E612EC401C50108004B3083120313EE
:101D0400D0004908D1000030D200D301D401DA0157
:101D1400DB015130C4000030C5004A08C600503011
:101D2400C7000A128A155C260A128A158312031345
:101D340053084907CF004F0884008313800108002B
:101D4400F401F501701CA72EA82EAE2E7208F4071C
:101D54000318F50A7308F50701300310F20DF30DAB
:101D6400FF3E031DAF2E01300310F10CF00CFF3EBB
:101D7400031DB62E70087104031DC12EC22EA42E9D
:101D84007508F1007408F000080083120313A6011B
:101D9400A701E42E2508A300A4012308F0002408C9
:101DA400F1002108F2002208F3000A128A11C52268
:101DB4000A128A15013083120313A6070318A70A0F
:101DC4000030A70726082007A300230884008313F4
:101DD4000008A5002508031DF02EF12ECC2E0800C6
:101DE400700871040319F72EF82E252F0130F40022
:101DF400042F01300310F00DF10DFF3E031DFC2EE6
:101E04000130F407F11F072F082FFB2E710873020E
:101E1400031D0E2F70087202031C112F122F182F8E
:101E24007008F2027108031CF303F302013003107B
:101E3400F10CF00CFF3E031D192F0130F402031DB9
:101E4400242F252F082F7308F1007208F0000800D2
:101E5400FB01FC014F2F7B087607F9007708F80097
:101E64000318F80AFB1F372FF8037808FA007A08DA
:101E740083120313FF00790884000A128A150020D4
:101E84000A128A150A128A1133220A128A1501309B
:101E9400FB070318FC0A0030FC077B087607F900EF
:101EA4007708F8000318F80AFB1F592FF80378087D
:101EB400FA007A0883120313FF00790884000A12D7
:101EC4008A1500200A128A15003A031D6A2F6B2F07
:101ED4002D2F0800F401F501700871040319732F04
:101EE400742FA92F0130F600802F01300310F00D5C
:101EF400F10DFF3E031D782F0130F607F11F832FEC
:101F0400842F772F01300310F40DF50DFF3E031DD0
:101F1400852F71087302031D912F70087202031C30
:101F2400942F952F9C2F7008F2027108031CF30361
:101F3400F302741401300310F10CF00CFF3E031D86
:101F44009D2F0130F602031DA82FA92F842F750899
:101F5400F1007408F000080073087204710470043E
:101F64000319B52FB62FF72F0130F900C42F013014
:101F7400F8000310F00DF10DF20DF30DF80BBB2F6B
:101F84000130F907F31FC72FC82FB92F7308770241
:101F9400031DD62F72087602031DD62F7108750211
:101FA400031DD62F70087402031CD92FDA2FE82FD3
:101FB4007008F4027108031C710FF5027208031C07
:101FC400720FF6027308031C730FF702013003103B
:101FD400F30CF20CF10CF00CFF3E031DE92F013061
:101FE400F902031DF62FF72FC82F7708F3007608A0
:0C1FF400F2007508F1007408F00008000D
:04400E00F22FFF3F4F
:00000001FF
