:060000000A128A11FC2F18
:100EE0008316031307117C3092000C308312031316
:100EF0009700053092009501080001308316031712
:100F0000880089010130831203139F00803083160B
:100F100003139F0008000A128A117D270A128A1102
:100F20000A128A1170270A128A1100300A128A11D5
:100F3000AC270A128A117108F6007008F5007608CD
:100F4000F1007508F0000A128A11D3270A128A11DB
:100F5000952F0A128A110028F4008330831203139C
:100F60009F057408F20001300310F20DFF3E031DCF
:100F7000B42F0310720D9F040630F3003030F200DE
:100F8000F20BC02FF30BC02F0000831203139F142A
:100F90009F18CB2FCC2FC82F1E08F10083160313E8
:100FA0001E08F00008007108F3007008F20003103A
:100FB000F30CF20C0310F30CF20C720883120313FF
:100FC00095007108F3007008F2000310F30CF20CA6
:100FD00072080139F400F40EF40D17087406DF39B5
:100FE0007406970070080139F200F20E17087206B5
:100FF000EF3972069700080083010A128A118B2FBD
:04400E00F22FFF3F4F
:00000001FF
