:060000000A128A11FC2F18
:100E520003308316031788008901013083120313BC
:100E62009F008030831603139F000800831603132C
:100E720007118710FF3092000C3083120313970082
:100E82000C309D00043092000800F400833083127D
:100E920003139F057408F20001300310F20DFF3EA8
:100EA200031D4E2F0310720D9F040630F3003030E5
:100EB200F200F20B5A2FF30B5A2F00008312031386
:100EC2009F149F18652F662F622F1E08F10083164C
:100ED20003131E08F00008007108F3007008F20006
:100EE2000310F30CF20C0310F30CF20C72088312D1
:100EF200031395007108F3007008F2000310F30C5D
:100F0200F20C72080139F400F40EF40D170874069D
:100F1200DF397406970070080139F200F20E1708E3
:100F22007206EF397206970008007108F300700824
:100F3200F2000310F30CF20C0310F30CF20C720823
:100F4200831203139B007108F3007008F200031070
:100F5200F30CF20C72080139F400F40EF40D1D08C2
:100F62007406DF3974069D0070080139F200F20E32
:100F72001D087206EF3972069D0008000A128A11D6
:100F820029270A128A110A128A1137270A128A118C
:100F920000300A128A1146270A128A117108F800D3
:100FA2007008F70001300A128A1146270A128A11C4
:100FB2007108FA007008F9007808F1007708F0006B
:100FC2000A128A116D270A128A117A08F100790829
:100FD200F0000A128A1196270A128A111A30F600B4
:100FE200F830F500F50BF32FF60BF32F0000C92FA5
:0E0FF2000A128A11002883010A128A11BF2FE9
:04400E00F22FFF3F4F
:00000001FF
