:060000000A128A11FC2F18
:100C1E00831603130715F93092007D3083120313E8
:100C2E0095000C30970017088C10073092008C1C22
:100C3E00212E222E1E2E8C10831603130711080050
:100C4E00CF3083120313970570080339F200033077
:100C5E000310F20DFF3E031D2F2E0310720D97048D
:100C6E007108F3007008F2000310F30CF20C03107D
:100C7E00F30CF20C7208950008000030FC000030F6
:100C8E00FB000030FA000030F900701C4F2E502E81
:100C9E00672E7408F907750803110318013E03192E
:100CAE00592EFA07760803110318013E0319602E18
:100CBE00FB07770803110318013E0319672EFC0783
:100CCE000130F8000310F40DF50DF60DF70DF80BCD
:100CDE00692E01300310F30CF20CF10CF00CFF3EF8
:100CEE00031D712E7308720471047004031D802E8F
:100CFE00812E4C2E7C08F3007B08F2007A08F1005E
:100D0E007908F000080083120313A901A31F902E87
:100D1E00912E9E2EA009A109A209A309A00A0319CA
:100D2E00A10A0319A20A0319A30A0130A900A71FD9
:100D3E00A12EA22EAF2EA409A509A609A709A40AC1
:100D4E000319A50A0319A60A0319A70A0130A90651
:100D5E000030AD000030AC000030AB000030AA0017
:100D6E0023082204210420040319BE2EBF2E0A2FAD
:100D7E000130A800CD2E0130FD000310A00DA10DF5
:100D8E00A20DA30DFD0BC42E0130A807A31FD02E5C
:100D9E00D12EC22E0130FD000310AA0DAB0DAC0DED
:100DAE00AD0DFD0BD32E23082702031DE82E2208BE
:100DBE002602031DE82E21082502031DE82E200819
:100DCE002402031CEB2EEC2EFB2E2008A40221087D
:100DDE00031C210FA5022208031C220FA6022308C2
:100DEE00031C230FA7022A1401300310A30CA20C1C
:100DFE00A10CA00CFF3E031DFC2E0130A802031D0A
:100E0E00092F0A2FD12E290803190E2F0F2F1A2F53
:100E1E00AA09AB09AC09AD09AA0A0319AB0A031951
:100E2E00AC0A0319AD0A2D08A3002C08A2002B084A
:100E3E00A1002A08A0000800831603178801890163
:100E4E008316031387010A128A110F260A128A11BA
:100E5E00003083120313B7000030B6000130B50026
:100E6E00F430B400B801B901003083120313A300AB
:100E7E000030A2000030A1006430A0003808F0005D
:100E8E003908F1000030F11BFF30F200F300370893
:100E9E00F7003608F6003508F5003408F4000A129B
:100EAE008A1144260A128A11730883120313A700AB
:100EBE007208A6007108A5007008A4000A128A1113
:100ECE008A260A128A11831203132008F43EB000F8
:100EDE0021080318013E013EB1003108F10030082F
:100EEE00F0000A128A1127260A128A118230831202
:100EFE000313AF00DD30AE00AE0B832FAF0B832F8D
:100F0E00013083120313B8070318B90A0030B9076A
:100F1E003908803AFF0080307F02031D982F65301C
:100F2E003802031C9B2F9C2F3B2F6430831203131C
:100F3E00B8000030B9000030A3000030A20000302D
:100F4E00A1006430A0003808F0003908F10000302C
:100F5E00F11BFF30F200F3003708F7003608F600F9
:100F6E003508F5003408F4000A128A1144260A12D4
:100F7E008A11730883120313A7007208A600710862
:100F8E00A5007008A4000A128A118A260A128A1174
:100F9E00831203132008F43EB20021080318013E09
:100FAE00013EB3003308F1003208F0000A128A1134
:100FBE0027260A128A11823083120313AF00DD3006
:100FCE00AE00AE0BE82FAF0BE82FFF3083120313EA
:100FDE00B8070318B90AFF30B907B91FF72FF82F52
:100FEE00A22F392F0A128A11002883010A128A11A0
:020FFE00232F9F
:04400E00F22FFF3F4F
:00000001FF
