:060000000A128A110C280F
:10000800FE00030EF2000A08F3000A128A119B2B65
:100018000A128A110F2883135930FD000330FE009D
:100028008530FF00433084000A128A11B3230A1274
:100038008A11D901DA01DB01DC01DD0183010A1231
:100048008A11262883160317880189013D30840008
:1000580083120313540883138000840A5508800010
:10006800840A56088000840A57088000840A5808C1
:100078008000203084003D088000840A3E0880000B
:10008800840A3F088000840A40088000840A4108E6
:1000980080000A128A119B210A128A1183160313FF
:1000A800061401138B100B168B17433084002C3069
:1000B80083120313A8001130A90083130008AA00B3
:1000C800040AAB00280884002A088000040AA80053
:1000D8002B088400A90B6128C20108300A128A1172
:1000E800E4220A128A1102300A128A11E4220A1240
:1000F8008A11123083120313A0000A128A113923BD
:100108000A128A110C300A128A11E4220A128A1180
:1001180000300A128A11E4220A128A118312031388
:1001280042082C3E84008313000803199C289D284C
:10013800B92842082C3E840000080A128A1152226B
:100148000A128A11013083120313C2070430831282
:100158000313AA000C30A9003330A800A80BB2285A
:10016800A90BB228AA0BB22892280C300A128A11BD
:10017800E4220A128A1100300A128A11E4220A12B1
:100188008A11013083120313A0000A128A1139233D
:100198000A128A110C300A128A11E4220A128A11F0
:1001A80000300A128A11E4220A128A1183120313F8
:1001B800C20192280A128A110C28F600761CE5283A
:1001C800E628FB28831203135908840083175A1C56
:1001D80083130130F4005C080739013EF528031049
:1001E800F40DFF3E031DF3287408800410298312C0
:1001F80003135908840083175A1C83130130F40031
:100208005C080739013E0A290310F40DFF3E031D5F
:1002180008297408FF3A8005F61C132914292A298D
:100228005908840083175A1C83130130F4005C0CAE
:10023800F500F50C750C0739013E24290310F40D5F
:10024800FF3E031D222974088004402959088400B0
:1002580083175A1C83130130F4005C0CF500F50C6D
:10026800750C0739013E3A290310F40DFF3E031DB2
:1002780038297408FF3A8005761D432944295729EF
:100288005908840083175A1C83130130F4005D0851
:100298000739013E51290310F40DFF3E031D4F2974
:1002A800740880046A295908840083175A1C831328
:1002B8000130F4005D080739013E64290310F40D8C
:1002C800FF3E031D62297408FF3A8005F61D6D295B
:1002D8006E2984295908840083175A1C8313013016
:1002E800F4005D0CF500F50C750C0739013E7E290C
:1002F8000310F40DFF3E031D7C29740880049A291D
:100308005908840083175A1C83130130F4005D0CCC
:10031800F500F50C750C0739013E94290310F40D0E
:10032800FF3E031D92297408FF3A800508005930E2
:10033800840083120313200883138000840A210891
:100348008000840A22088000840A23088000840A26
:100358002408800000305A06031DB42905305906C8
:10036800031DB729B829BC29831603138501D7298A
:1003780000305A06031DC22906305906031DC52937
:10038800C629CA29831603138601D72900305A06BD
:10039800031DD02907305906031DD329D429512A12
:1003A8008316031387011A3083120313A600F7304C
:1003B800A500A50BDD29A60BDD29E22903300A12C9
:1003C8008A11E4220A128A11073083120313A60045
:1003D8007C30A500A50BEE29A60BEE290000033002
:1003E8000A128A11E4220A128A11153083120313A1
:1003F800A600C530A500A50BFF29A60BFF29042AD6
:1004080003300A128A11E4220A128A1102300A12EF
:100418008A11E4220A128A1102300A128A11E4228D
:100428000A128A1108300A128A11E4220A128A1161
:1004380000300A128A11E4220A128A1106300A12BE
:100448008A11E4220A128A11083083120313A700C2
:1004580027152708A50004300310A50CFF3E031D2F
:10046800302A25080F390A128A11E4220A128A1141
:100478008312031327080F390A128A11E4220A1279
:100488008A1100300A128A11E4220A128A110130F4
:100498000A128A11E4220A128A110800F90083124A
:1004A80003135908840083175A1C83130130F7007B
:1004B8005B080739013E622A0310F70DFF3E031D52
:1004C800602A770880047908F70004300310F70CD5
:1004D800FF3E031D6A2A77080F390A128A11E120A4
:1004E8000A128A11831203135908840083175A1CAD
:1004F80083130130F7005B0CF800F80C780C07390F
:10050800013E882A0310F70DFF3E031D862A77084F
:1005180080040D30F700F70B8F2A83120313590854
:10052800840083175A1C83130130F7005B0CF80012
:10053800F80C780C0739013EA32A0310F70DFF3E8B
:10054800031DA12A7708FF3A800579080F390A1296
:100558008A11E1200A128A118312031359088400B0
:1005680083175A1C83130130F7005B0CF800F80C52
:10057800780C0739013EC22A0310F70DFF3E031D10
:10058800C02A770880040D30F700F70BC92A8312B8
:1005980003135908840083175A1C83130130F7008A
:1005A8005B0CF800F80C780C0739013EDD2A0310C3
:1005B800F70DFF3E031DDB2A7708FF3A8005080088
:1005C800F900831203135908840083175A1C8313F4
:1005D8000130F7005B080739013EF42A0310F70DD4
:1005E800FF3E031DF22A7708FF3A800579080A12B0
:1005F8008A11E1200A128A11831203135908840010
:1006080083175A1C83130130F7005B0CF800F80CB1
:10061800780C0739013E122B0310F70DFF3E031D1E
:10062800102B770880040630F8003030F700F70BFD
:100638001B2BF80B1B2B0000831203135908840093
:1006480083175A1C83130130F7005B0CF800F80C71
:10065800780C0739013E322B0310F70DFF3E031DBE
:10066800302B7708FF3A8005080083120313A10195
:10067800A201532B2108200784000A128A11612342
:100688000A128A110A128A1152220A128A11013098
:1006980083120313A1070318A20A0030A207210836
:1006A800200784000A128A1161230A128A11003A6B
:1006B800031D5F2B602B3E2B080003308A000408C3
:1006C800840A820700342034203420342034203433
:1006D8002034203420342034203420342034203472
:1006E8002034203420340034483445344C344C34DD
:1006F8004F34203457344F3452344C34443421343A
:100708000034413442344334443445344634473465
:10071800483449344A344B344C344D344E344F34D5
:1007280050340034073400341A342C343E348B1CD3
:100738009E2B9F2BA82B4E30F100EB30F000F00BD6
:10074800A32BF10BA32B8B1073088A00720E830066
:10075800FE0E7E0E09007E088A007F0882000A12BB
:100768008A11AF230A128A118000840A04087D06C0
:0C07780003190034FF0A0319FE0AB32B1A
:04400E00F22FFF3F4F
:00000001FF
