:100000000A128A11FB2F00308A000408840A820732
:1000100000343F3406345B344F3466346D347D3401
:0600200007347F346F3449
:100D3600F501F31F9F2EA02EA72EF209F309F20A42
:100D46000319F30A0130F500F11FAA2EAB2EB02EBF
:100D5600F009F109F00A0319F10A70087104031980
:100D6600B52EB62EE32E0130F400C22E013003104C
:100D7600F00DF10DFF3E031DBA2E0130F407F11FF1
:100D8600C52EC62EB92E71087302031DCC2E70080F
:100D96007202031CCF2ED02ED62E7008F2027108D6
:100DA600031CF303F30201300310F10CF00CFF3EB9
:100DB600031DD72E0130F402031DE22EE32EC62EAC
:100DC60075080319E72EE82EED2EF209F309F20A4B
:100DD6000319F30A7308F1007208F0000800F50120
:100DE600F11FF62EF72EFE2EF009F109F00A03196F
:100DF600F10A0130F500F31F012F022F092FF20926
:100E0600F309F20A0319F30A0130F506F601F701B0
:100E1600700871040319102F112F462F0130F400AA
:100E26001D2F01300310F00DF10DFF3E031D152F90
:100E36000130F407F11F202F212F142F013003104A
:100E4600F60DF70DFF3E031D222F71087302031DD9
:100E56002E2F70087202031C312F322F392F700883
:100E6600F2027108031CF303F30276140130031037
:100E7600F10CF00CFF3E031D3A2F0130F402031D66
:100E8600452F462F212F750803194A2F4B2F502F18
:100E9600F609F709F60A0319F70A7708F100760842
:100EA600F000080083160317880189017F30831636
:100EB60003138105FF30860087018801FF30831206
:100EC60003138600870188010A30F0000030F10024
:100ED6007A08F800F9017808F2007908F3000A1296
:100EE6008A119B260A128A117008013E84000A1292
:100EF6008A1103200A128A118312031387000A300B
:100F0600F0000030F1007A08F800F9017808F200E4
:100F16007908F3000A128A11F2260A128A11700859
:100F2600013E84000A128A1103200A128A118312D2
:100F3600031388000618A02FA12FBE2F8230F900B8
:100F4600DD30F800F80BA52FF90BA52FAA2F831279
:100F560003130618AF2FB02FBE2F63307A06031D7A
:100F6600B52FB62FB82FFA01BA2F0130FA07061C93
:100F7600BD2FBE2FBA2F8618C12FC22FDF2F82306A
:100F8600F900DD30F800F80BC62FF90BC62FCB2F72
:100F9600831203138618D02FD12FDF2F7A08031D53
:100FA600D52FD62FD92F6330FA00DB2F0130FA0266
:100FB600861CDE2FDF2FDB2F0619E22FE32F672F8C
:100FC6008230F900DD30F800F80BE72FF90BE72F38
:100FD600EC2F831203130619F12FF22F672FFA0154
:100FE600061DF62FF72FF32F672F0A128A110028F6
:0A0FF600FA0183010A128A11552F37
:04400E00F22FFF3F4F
:00000001FF
