:100000000A128A11DB2F0800513083120313DA0021
:100010004F08DB000030DC00DD01DE01E401E5011A
:100020005B30CA000030CB005008CC005A30CD0005
:100030000A128A15D8200A128A11831203135D0846
:100040004F07D900590884008313800108008312E8
:1000500003133F0884008313000884000A128A15E2
:100060000A200A128A11253A031D37283828142934
:100070003F0884000130800783160313D301D401A5
:10008000003083120313EE00FF3083160313D500F4
:10009000FF30D60083120313C7016428EE143F0813
:1000A00084000130800764280130C70064283F08BD
:1000B0008400000884000A128A150A200A128A1194
:1000C000303A03194E28542847080319682869282C
:1000D00057283F08F6004008F7000A128A15262222
:1000E0000A128A11770883160313D4007608D30006
:1000F000D41F7B287C288628831203136E14831652
:100100000313D309D409D30A0319D40A831203139E
:100110003F08840083130008C900490884000A12BC
:100120008A150A200A128A11C8009E280130C907C0
:10013000A9286930C800A928C801A9284808643A34
:10014000031999280D3A03199928053A0319962895
:100150009C28490884000A128A150A200A128A116A
:10016000643A0319B428B528ED28490884000A1216
:100170008A150A200A128A11693A031DC028C1286B
:100180000C29ED28400884000008FF000230800799
:100190007F0884000008C100840A0008C2004108EA
:1001A000C3004208C4000030C41BFF30C500C600B5
:1001B000F528400884000008FF00043080077F080D
:1001C00084000008C300840A0008C400840A0008F0
:1001D000C500840A0008C600F5284808693A0319D2
:1001E000C228053A0319D928F5283F088400490890
:1001F000013E80003D08AF003E08B0004608B40054
:100200004508B3004408B2004308B1000A128A1539
:100210001E270A128A112D29831203133F08840016
:100220000130831380072D293F08840000088400D3
:100230000A128A150A200A128A11C100C201410855
:10024000F0004208F1003D08F2003E08F3000A12F7
:100250008A157C240A128A110C29080000308312A6
:100260000313AE000030AD000030AC000030AB0036
:100270000030B3000030B2000030B1000030B000F8
:10028000B401872934082007A4002408840000084A
:10029000D03EA500FF3003180030A6002508A700B7
:1002A0002608A800A901AA012E08F3002D08F200D3
:1002B0002C08F1002B08F0000030F7000030F600A9
:1002C0000030F5000A30F4000A128A158D210A1256
:1002D0008A11700883120313A70771080318710F9E
:1002E00072297329A80772080318720F78297929CF
:1002F000A90773080318730AAA072A08AE00290879
:10030000AD002808AC002708AB000130B407340862
:100310002007A400240884008317000803199129EA
:1003200092299D2934082007A400240884002E3037
:100330000006031D9C299D29422934082007A4009A
:10034000240884002E300006031DA729A829AA2905
:100350000130B407AF01F32934082007A4002408B2
:1003600084000008D03EA500FF3003180030A6002E
:100370002508A7002608A800A901AA013308F30050
:100380003208F2003108F1003008F0000030F700C8
:100390000030F6000030F5000A30F4000A128A1529
:1003A0008D210A128A11700883120313A70771089E
:1003B0000318710FDC29DD29A80772080318720FD2
:1003C000E229E329A90773080318730AAA072A0870
:1003D000B3002908B2002808B1002708B000013096
:1003E000B4070130AF0734082007A40024088400B4
:1003F000831700080319FD29FE29042A02302F0261
:10040000031C032A042AAC292F03031D082A092AE6
:10041000282A0030F3000030F2000030F1000A30EA
:10042000F0003308F7003208F6003108F500300814
:10043000F4000A128A158D210A128A117308831298
:100440000313B3007208B2007108B1007008B00065
:100450002E08F3002D08F2002C08F1002B08F00004
:100460000030F7000030F6000030F5006430F40092
:100470000A128A158D210A128A1170088312031339
:100480003007A4000030031801307107A6010318DB
:10049000A60A3107A5000318A60A72082607A701B5
:1004A0000318A70A3207A6000318A70A730827072C
:1004B0003307A7002708A3002608A2002508A100EB
:1004C0002408A000080083120313E91F682A692A80
:1004D000FE2AE609E709E809E909E60A0319E70A35
:1004E0000319E80A0319E90A0030A3000030A2004A
:1004F0000030A1006430A0006908A7006808A600C9
:100500006708A5006608A4000A128A15E3230A12E8
:100510008A1183120313230883160313B400831272
:100520000313220883160313B30083120313210855
:1005300083160313B20083120313200883160313D8
:10054000B1000030F3000030F2000030F100643000
:10055000F000831203136908F7006808F6006708C3
:10056000F5006608F4000A128A15CE220A128A11D2
:10057000730883160313B8007208B7007108B60039
:100580007008B500A03083120313CF005030D000A4
:1005900083160313340883120313D4008316031342
:1005A000330883120313D300831603133208831214
:1005B0000313D20083160313310883120313D100EF
:1005C00083160313380883120313D800831603130A
:1005D000370883120313D7008316031336088312D8
:1005E0000313D60083160313350883120313D500B3
:1005F0000A128A1104200A128A11872B0030A300E4
:100600000030A2000030A1006430A0006908A700FB
:100610006808A6006708A5006608A4000A128A15E3
:10062000E3230A128A118312031323088316031388
:10063000B40083120313220883160313B30083123A
:100640000313210883160313B20083120313200837
:1006500083160313B1000030F3000030F2000030C5
:10066000F1006430F000831203136908F700680892
:10067000F6006708F5006608F4000A128A15CE2213
:100680000A128A11730883160313B8007208B700A0
:100690007108B6007008B500A03083120313CF00B4
:1006A0005130D00083160313340883120313D4008F
:1006B00083160313330883120313D3008316031323
:1006C000320883120313D2008316031331088312F6
:1006D0000313D10083160313380883120313D800C1
:1006E00083160313370883120313D70083160313EB
:1006F000360883120313D6008316031335088312BA
:100700000313D5000A128A1104200A128A1100303C
:100710000A128A1579220A128A1101300A128A15E0
:1007200079220A128A1108300A128A1579220A12CD
:100730008A1100300A128A1579220A128A1145306C
:10074000F6008030F7000A128A154B210A128A112E
:100750000C300A128A1579220A128A1100300A1204
:100760008A1579220A128A11A030F6000030F700AB
:100770000A128A154B210A128A11080083160317E0
:1007800088018901F0308316031388000F3086003A
:1007900081130F308312031388000F308600B030AE
:1007A000840083160313490883178000840A4A08CB
:1007B0008000840A4B088000840A4C088000840A68
:1007C0004D088000763084008316031730088000BF
:1007D000840A31088000840A32088000840A3308C1
:1007E0008000840A340880000A128A1516250A122D
:1007F0008A11003083160317BC000030BB000030A4
:10080000BA000030B900CA01BF01B801A0019001CF
:1008100000300A128A1579220A128A1101300A124E
:100820008A1579220A128A1108300A128A15792249
:100830000A128A1100300A128A1579220A128A11C4
:100840003430F6008030F7000A128A154B210A1264
:100850008A110C300A128A1579220A128A11003084
:100860000A128A1579220A128A111230F600803093
:10087000F7000A128A154B210A128A1115308312C9
:100880000313EC004B30EB00BD30EA00EA0B462CC2
:10089000EB0B462CEC0B462C4D2C00300A128A1523
:1008A00079220A128A1101300A128A1579220A1253
:1008B0008A110A128A15BC250A128A118316031797
:1008C000CB004B08031D652C662C672C592C38086F
:1008D00003196B2C6C2C882CA030F0009030F100A8
:1008E000CA30F200BF30F3000A128A158F200A12B4
:1008F0008A1183160317B80100300A128A1579226B
:100900000A128A1101300A128A1579220A128A11F2
:100910002A30831603174B06031D8F2C902CC32EF1
:100920002008031D942C952CA22C00300A128A1545
:1009300079220A128A1101300A128A1579220A12C2
:100940008A11592C10080319A62CA72C592C4A08D7
:100950000319AB2CAC2C592CA03083120313A0002C
:100960000A128A112E210A128A11831203132308F4
:1009700083160317C3008312031322088316031779
:10098000C20083120313210883160317C1008312C8
:100990000313200883160317C0009030831203133B
:1009A000A0000A128A112E210A128A11831203133F
:1009B000230883160317C800831203132208831623
:1009C0000317C70083120313210883160317C600F9
:1009D00083120313200883160317C500952E4008C1
:1009E000450783120313EA00003003180130831611
:1009F0000317410783120313EC010318EC0A831653
:100A00000317460783120313EB000318EC0A83163F
:100A100003174208831203136C07ED010318ED0A54
:100A200083160317470783120313EC000318ED0A1C
:100A3000831603174308831203136D0783160317E6
:100A4000480783120313ED006D0883160317BC00DB
:100A5000831203136C0883160317BB00831203135E
:100A60006B0883160317BA00831203136A088316F0
:100A70000317B900A32E400883120313EA0083165C
:100A80000317410883120313EB0083160317420870
:100A900083120313EC008316031743088312031316
:100AA000ED0083160317450883120313EA02831629
:100AB00003174608031C460F5E2D612D8312031396
:100AC000EB02831603174708031C470F682D6B2D95
:100AD00083120313EC02831603174808031C480F04
:100AE000722D752D83120313ED02831603178312E3
:100AF00003136D0883160317BC00831203136C08DD
:100B000083160317BB00831203136B0883160317A6
:100B1000BA00831203136A0883160317B900A32EC1
:100B2000003083120313A3000030A2000030A100A4
:100B30006430A000831603174308F3004208F20054
:100B40004108F1004008F0004808F7004708F600A7
:100B50004608F5004508F4000A128A158D210A128C
:100B60008A11730883120313A7007208A600710884
:100B7000A5007008A4000A128A15E3230A128A113C
:100B800083120313230883160317BC008312031375
:100B9000220883160317BB00831203132108831650
:100BA0000317BA0083120313200883160317B90032
:100BB000A32E48084704460445040319E02DE12DFF
:100BC000362E480883120313A30083160317470821
:100BD00083120313A200831603174608831203131C
:100BE000A10083160317450883120313A000831680
:100BF00003174308F3004208F2004108F1004008DF
:100C0000F0000030F7000030F6000030F5006430EE
:100C1000F4000A128A158D210A128A1173088312B0
:100C20000313A7007208A6007108A5007008A400AD
:100C30000A128A15E3230A128A1183120313230866
:100C400083160317BC0083120313220883160317AD
:100C5000BB0083120313210883160317BA00831203
:100C60000313200883160317B900A32E00300A12BD
:100C70008A1579220A128A1101300A128A157922FC
:100C80000A128A1108300A128A1579220A128A1168
:100C900000300A128A1579220A128A110130F600F0
:100CA0008030F7000A128A154B210A128A110C3083
:100CB0000A128A1579220A128A1100300A128A153C
:100CC00079220A128A112330F6008030F7000A12C6
:100CD0008A154B210A128A11153083120313EC0076
:100CE0004B30EB00BD30EA00EA0B742EEB0B742E98
:100CF000EC0B742E7B2EA030F0009030F100CA3047
:100D0000F200BF30F3000A128A158F200A128A11EE
:100D100000300A128A1579220A128A1101300A1249
:100D20008A1579220A128A11592C4A08413A031964
:100D3000EF2C033A03193B2D013A0319902D073A82
:100D40000319D92DA32E3C0883120313E90083163F
:100D500003173B0883120313E800831603173A08AE
:100D600083120313E7008316031739088312031352
:100D7000E6000A128A1163220A128A1101308316D0
:100D80000317B800592C30304B02031CC82EC92E53
:100D9000CF2E3A304B02031CCE2ECF2ED52E233031
:100DA0004B06031DD42ED52E552F23304B06031989
:100DB000DA2EDB2EEB2E4B0883120313EA00EB0135
:100DC0006A0883160317B500831203136B08831692
:100DD0000317B600EF2E2E30B5000030B6003508F0
:100DE000BD003F080319F52EF62EF92E9030C400F1
:100DF000FB2EA030C400C901012F01308316031758
:100E0000C9074908440783120313EA006A088400EB
:100E100083170008031D0D2F0E2FFD2E2E30831675
:100E200003173D06031D152F162F3B2FB701BE01DB
:100E30002F2F3E08440783120313EA006A08840038
:100E40002E300006031D252F262F2B2F0130831651
:100E50000317B700352F013083160317BE07490863
:100E60003E02031C342F352F192F37080319392F51
:100E70003A2F3B2F592C093049020318402F412F9C
:100E8000762F4908440783120313EA006A08840096
:100E9000831603173D088000490844078312031393
:100EA000EA006A0A84008001762F41304B0603195C
:100EB0005A2F5B2F6D2F42304B060319602F612F85
:100EC0006D2F43304B060319662F672F6D2F44306B
:100ED0004B06031D6C2F6D2F762F20080319712FE1
:100EE000722F762F4B08CA000130BF0000300A1263
:100EF0008A1579220A128A1101300A128A1579227A
:100F00000A128A1108300A128A1579220A128A11E5
:100F100000300A128A1579220A128A11A030F600CE
:100F20000130F7000A128A154B210A128A11B42FD8
:100F30002B300A128A1551230A128A11C42F2D3020
:100F40000A128A1551230A128A11C42F78300A1204
:100F50008A1551230A128A11C42F2F300A128A15BA
:100F600051230A128A11C42F831603174A08413AE3
:100F70000319982F033A03199F2F013A0319A62F3B
:100F8000073A0319AD2FC42F9030F6000130F70057
:100F90000A128A154B210A128A1182308312031316
:100FA000EB00DD30EA00EA0BD32FEB0BD32F592CEB
:100FB0000A128A1100288313CE30FD000830FE008B
:100FC000C330FF00B93084000A128A15B4200A1217
:100FD0008A118317CC308400EC300A128A158720DE
:100FE0000A128A118313CE308400D7300A128A1570
:100FF00087200A128A11EE0183010A128A11BE2B80
:10100000FF1B0A2883137F1883170008840A03191B
:10101000FF0A080008308A000408840A82070034A6
:10102000203420344534723472346F3472343A349C
:101030002034203420342034203420342034203410
:10104000003441342B34203442342D3420344334A2
:101050002A34203444342F342034203420342034B3
:10106000203400342034203444346934763420343D
:1010700065346E3474347234653420343034203442
:1010800020342034003420342034433461346C3430
:10109000633475346C34613464346F347234613465
:1010A00020342034203400345234653473347534A1
:1010B0006C347434613464346F343A3400342D3415
:1010C00025346C3464342E342534303432346C346A
:0410D0006434003450
:10110E0064008001840A040603190034040688284A
:10111E0070088400831780017108840080017208B2
:10112E00840080017308840080010800FC1BA02845
:10113E00A128A228AF287B0983120313A0007C09E3
:10114E00A100A00A0319A10A2008FB002108FC0037
:10115E0008007E088A007F0882000A128A15B020D5
:10116E000A128A158000840A04087D0603190034C9
:10117E00FF0A0319FE0AB4283134323433344134B1
:10118E0034343534363442343734383439344334E5
:10119E002A34303423344434073400341A342C3493
:1011AE003E34831203134C08CE00EA284A08BD00D1
:1011BE004B08BE004E30BF004D08C0000A128A1107
:1011CE0027200A128A15831203134E0884000A126E
:1011DE008A150A200A128A15003A031DF728F828E4
:1011EE00DD28CA01CB010800F401F501701C0029AD
:1011FE00012907297208F4070318F50A7308F50781
:10120E0001300310F20DF30DFF3E031D08290130CE
:10121E000310F10CF00CFF3E031D0F297008710432
:10122E00031D1A291B29FD287508F1007408F0000A
:10123E00080083120313A601A7013D292508A30068
:10124E00A4012308F0002408F1002108F20022086E
:10125E00F3000A128A157C240A128A1501308312B1
:10126E000313A6070318A70A0030A70726082007AE
:10127E00A3002308840083170008A5002508031D7A
:10128E0049294A2925290800FB01FC0170297B0800
:10129E007607F9007708F8000318F80AFB1F58299B
:1012AE00F8037808FA007A0883120313FF0079080E
:1012BE0084000A128A1500200A128A150A128A154B
:1012CE0051230A128A150130FB070318FC0A00305D
:1012DE00FC077B087607F9007708F8000318F80A70
:1012EE00FB1F7A29F8037808FA007A088312031391
:1012FE00FF00790884000A128A1500200A128A1546
:10130E00003A031D8B298C294E2908000030FC0061
:10131E000030FB000030FA000030F900701C9829F4
:10132E009929B0297408F907750803110318013EAD
:10133E000319A229FA07760803110318013E0319AF
:10134E00A929FB07770803110318013E0319B029D9
:10135E00FC070130F8000310F40DF50DF60DF70D36
:10136E00F80BB22901300310F30CF20CF10CF00C57
:10137E00FF3E031DBA297308720471047004031D25
:10138E00C929CA2995297C08F3007B08F2007A083E
:10139E00F1007908F0000800831203136E1CD8299F
:1013AE00D929E4292A08A0002808A1002908A200AA
:1013BE000A128A1520210A128A1583120313AC1FF2
:1013CE00E929EA29EC29AB01AC01AD01AE01062AEF
:1013DE002030F0000030F100831203132808F200D1
:1013EE002908F3000A128A157C240A128A15013084
:1013FE0083120313AD070318AE0A0030AE072E0892
:10140E00803AFD002C08803A7D02031D102A2B081D
:10141E002D02031C132A142AEF29831203136E18AC
:10142E00192A1A2A252A2A08A0002808A100290804
:10143E00A2000A128A1520210A128A150800F90143
:10144E00FA01760884008313000884000A128A15B4
:10145E000A200A128A152A3A031D362A372A632AC7
:10146E007608840001308007770884000008FF00AA
:10147E00023080077F0884000008F900840A000803
:10148E00FA00742A7A08F1007908F0000A30F200A6
:10149E000030F3000A128A15FB200A128A1578080A
:1014AE007007F9000030031801307107FA00760852
:1014BE0084000130831380077608840000088400BE
:1014CE000A128A150A200A128A15D03EF8000A302E
:1014DE007802031C732A742A492A7A08F7007908BD
:1014EE00F6000800F500831603134E0884008317D8
:1014FE004F1C83130130F30050080739013E892A2F
:10150E000310F30DFF3E031D872A7308FF3A800573
:10151E0075080A128A1564260A128A158316031391
:10152E004E08840083174F1C83130130F300500CB8
:10153E00F400F40C740C0739013EA72A0310F30DC6
:10154E00FF3E031DA52A730880040630F4003030D8
:10155E00F300F30BB02AF40BB02A0000831603132A
:10156E004E08840083174F1C83130130F300500C78
:10157E00F400F40C740C0739013EC72A0310F30D66
:10158E00FF3E031DC52A7308FF3A80050800FA01C5
:10159E00F71FD22AD32AE02AF409F509F609F7092A
:1015AE00F40A0319F50A0319F60A0319F70A0130AA
:1015BE00FA00F31FE32AE42AEF2AF009F109F209EF
:1015CE00F309F00A0319F10A0319F20A0319F30ACF
:1015DE0073087204710470040319F62AF72A382B63
:1015EE000130F900052B0130F8000310F00DF10D5C
:1015FE00F20DF30DF80BFC2A0130F907F31F082B3F
:10160E00092BFA2A73087702031D172B720876022C
:10161E00031D172B71087502031D172B700874021A
:10162E00031C1A2B1B2B292B7008F4027108031CA8
:10163E00710FF5027208031C720FF6027308031C79
:10164E00730FF70201300310F30CF20CF10CF00CD7
:10165E00FF3E031D2A2B0130F902031D372B382BB9
:10166E00092B7A0803193C2B3D2B482BF409F5095D
:10167E00F609F709F40A0319F50A0319F60A03190C
:10168E00F70A7708F3007608F2007508F10074087F
:10169E00F0000800F500831603134E08840083172C
:1016AE004F1C83130130F30050080739013E612BA4
:1016BE000310F30DFF3E031D5F2B730880047508A6
:1016CE00F30004300310F30CFF3E031D692B730867
:1016DE000F390A128A1564260A128A158316031305
:1016EE004E08840083174F1C83130130F300500CF7
:1016FE00F400F40C740C0739013E872B0310F30D24
:10170E00FF3E031D852B730880040D30F300F30B91
:10171E008E2B831603134E08840083174F1C8313DE
:10172E000130F300500CF400F40C740C0739013E38
:10173E00A22B0310F30DFF3E031DA02B7308FF3ADF
:10174E00800575080F390A128A1564260A128A1541
:10175E00831603134E08840083174F1C8313013026
:10176E00F300500CF400F40C740C0739013EC12B3D
:10177E000310F30DFF3E031DBF2B730880040D30C5
:10178E00F300F30BC82B831603134E088400831744
:10179E004F1C83130130F300500CF400F40C740C46
:1017AE000739013EDC2B0310F30DFF3E031DDA2B30
:1017BE007308FF3A8005080083120313A901A31FC3
:1017CE00E92BEA2BF72BA009A109A209A309A00A6C
:1017DE000319A10A0319A20A0319A30A0130A900C9
:1017EE00A71FFA2BFB2B082CA409A509A609A709EC
:1017FE00A40A0319A50A0319A60A0319A70A013098
:10180E00A9060030AD000030AC000030AB00003057
:10181E00AA0023082204210420040319172C182CD3
:10182E00632C0130A800262C0130FD000310A00D02
:10183E00A10DA20DA30DFD0B1D2C0130A807A31F9A
:10184E00292C2A2C1B2C0130FD000310AA0DAB0DE8
:10185E00AC0DAD0DFD0B2C2C23082702031D412CC6
:10186E0022082602031D412C21082502031D412CAE
:10187E0020082402031C442C452C542C2008A402BE
:10188E002108031C210FA5022208031C220FA60209
:10189E002308031C230FA7022A1401300310A30CE4
:1018AE00A20CA10CA00CFF3E031D552C0130A8026A
:1018BE00031D622C632C2A2C29080319672C682C13
:1018CE00732CAA09AB09AC09AD09AA0A0319AB0A14
:1018DE000319AC0A0319AD0A2D08A3002C08A200A7
:1018EE002B08A1002A08A00008007208730403192F
:1018FE00812C822C882C72087304031D872C882C53
:10190E008F2C70080A128A1103200A128A15152DBF
:10191E007208093EF40073080318013E003EF500FC
:10192E00740884008317751C83130008F600840A5C
:10193E000008F700760877040319A62CA72CD92CDB
:10194E007208093EF40073080318013E003EF500CC
:10195E00740884008317751C83130008F600840A2C
:10196E000008F7007208023EF80073080318013EE3
:10197E00003EF900780884008317791C8313000851
:10198E00FA00840A0008FB007B08803AFC00770806
:10199E00803A7C02031DD52C76087A020318D82CC7
:1019AE00D92C152D720884008317731C831300081D
:1019BE00F400840A0008F5007208023EF60073086F
:1019CE000318013E003EF700760884008317771C4B
:1019DE00831300087407F9007508F8000318F80A55
:1019EE00801FFA2CF8037808FA0079088400831710
:1019FE007A1C8313700880007208023EF40073088C
:101A0E000318013E003EF500740884008317751C10
:101A1E00831301308007840A0318800A0800CE3031
:101A2E008400760883138000840A77088000840A75
:101A3E0078088000840A79088000840A7A08800079
:101A4E000030831603134F06031D2F2D05304E064F
:101A5E00031D322D332D352D85014C2D00304F06B3
:101A6E00031D3B2D06304E06031D3E2D3F2D412DF1
:101A7E0086014C2D00304F06031D472D07304E06B4
:101A8E00031D4A2D4B2DBB2D87011A30FC00F8305B
:101A9E00FB00FB0B502DFC0B502D000003300A12E7
:101AAE008A1579220A128A150730FC007D30FB0058
:101ABE00FB0B5F2DFC0B5F2D03300A128A1579226A
:101ACE000A128A151530FC00C630FB00FB0B6D2D7B
:101ADE00FC0B6D2D000003300A128A1579220A12B2
:101AEE008A1502300A128A1579220A128A150230D4
:101AFE000A128A1579220A128A1508300A128A15D4
:101B0E0079220A128A1500300A128A1579220A12CF
:101B1E008A1506300A128A1579220A128A15083099
:101B2E00FD007D157D08FB0004300310FB0CFF3E0D
:101B3E00031D9C2D7B080F390A128A1579220A1271
:101B4E008A157D080F390A128A1579220A128A150A
:101B5E0000300A128A1579220A128A1501300A12E9
:101B6E008A1579220A128A150800F2010F308312A3
:101B7E0003138804CA2D0810D82D8810D82D0811EB
:101B8E00D82D8811D82D7208003A0319C22D013AAA
:101B9E000319C42D033A0319C62D013A0319C82D92
:101BAE00D82D2130F000F00BDA2D83120313061816
:101BBE00E12DE22DFD2D061CE52DE62DE22D4E30FC
:101BCE00F100EB30F000F00BEA2DF10BEA2D72086C
:101BDE00F00001300310F00DFF3E031DF12D031038
:101BEE00700DB93E840083130008632E8618002EF4
:101BFE00012E1C2E861C042E052E012E4E30F100B9
:101C0E00EB30F000F00B092EF10B092E7208F000EC
:101C1E0001300310F00DFF3E031D102E0310700D4A
:101C2E00BA3E840083130008632E06191F2E202E41
:101C3E003B2E061D232E242E202E4E30F100EB308F
:101C4E00F000F00B282EF10B282E7208F000013058
:101C5E000310F00DFF3E031D2F2E0310700DBB3E23
:101C6E00840083130008632E86193E2E3F2E5A2EB3
:101C7E00861D422E432E3F2E4E30F100EB30F000EB
:101C8E00F00B472EF10B472E7208F00001300310B7
:101C9E00F00DFF3E031D4E2E0310700DBC3E840052
:101CAE0083130008632E0130F20704307202031C06
:101CBE00612E622EBD2D00300800F200721C682EBF
:101CCE00692E7E2E831603134E08840083174F1C35
:101CDE0083130130F00051080739013E782E0310AE
:101CEE00F00DFF3E031D762E70088004932E831692
:101CFE0003134E08840083174F1C83130130F0002A
:101D0E0051080739013E8D2E0310F00DFF3E031DC5
:101D1E008B2E7008FF3A8005F21C962E972EAD2E54
:101D2E004E08840083174F1C83130130F000510CB2
:101D3E00F100F10C710C0739013EA72E0310F00DC6
:101D4E00FF3E031DA52E70088004C32E4E0884008E
:101D5E0083174F1C83130130F000510CF100F10C6E
:101D6E00710C0739013EBD2E0310F00DFF3E031D11
:101D7E00BB2E7008FF3A8005721DC62EC72EDA2EB6
:101D8E004E08840083174F1C83130130F000520855
:101D9E000739013ED42E0310F00DFF3E031DD22E47
:101DAE0070088004ED2E4E08840083174F1C831399
:101DBE000130F00052080739013EE72E0310F00DF6
:101DCE00FF3E031DE52E7008FF3A8005F21DF02E32
:101DDE00F12E072F4E08840083174F1C83130130FA
:101DEE00F000520CF100F10C710C0739013E012F7D
:101DFE000310F00DFF3E031DFF2E700880041D2FF3
:101E0E004E08840083174F1C83130130F000520CD0
:101E1E00F100F10C710C0739013E172F0310F00D74
:101E2E00FF3E031D152F7008FF3A80050800013094
:101E3E0083120313B700B41B252F272F0130282F31
:101E4E000030BA0083160313540883120313B9002B
:101E5E0083160313530883120313B8003A080319A9
:101E6E00392F3A2F502FFF30B8070318B90AFF3019
:101E7E00B9073A08031D442F452F4A2F2B30B500C2
:101E8E000030B6004E2F2D30B5000030B6003508AC
:101E9E00BA001F30BB000030BC0083160317EB01E5
:101EAE00AB2FFF30BB070318BC0AFF30BC073B0843
:101EBE00CC3E84000030F3000030F2000030F10020
:101ECE000A30F0003408F7003308F6003208F50047
:101EDE003108F4000A128A15CE220A128A157108E8
:101EEE00FC007008FB000A128A159D200A128A1542
:101EFE007B08303E8317800083120313B701FF3037
:101F0E00B8070318B90AFF30B9070030A300003034
:101F1E00A2000030A1000A30A0003408A700330848
:101F2E00A6003208A5003108A4000A128A15E32380
:101F3E000A128A15831203132308B4002208B30071
:101F4E002108B2002008B100831203133C08803A26
:101F5E00FF0080307F02031DB62F01303B02031CB1
:101F6E00B92FBA2FDC2F8312031334083304320433
:101F7E003104031DC32FC42F582F3708031DC82F3C
:101F8E00C92F582F3908803AFF0080307F02031D79
:101F9E00D22F01303802031CD52FD62FDC2F8312FF
:101FAE000313EE18DB2FDC2F582F831203133A087E
:101FBE000319E22FE32FEF2FFF30BB070318BC0AE4
:101FCE00FF30BC073B08CC3E84003A0883178000E4
:101FDE002F08A8003008A9003B08CC3EAA003908FB
:101FEE00AC003808AB000A128A15D3210A128A15E2
:021FFE000800D9
:04400E00F22FFF3F4F
:00000001FF
