:060000000A128A110C280F
:10000800FE00030EF0000A08F1000A128A15192FE3
:100018000A128A110F28831603130A128A157126E9
:100028000A128A11E9000A128A1572260A128A111E
:10003800EA000A128A1573260A128A11EB000A12BC
:100048008A1574260A128A11EC000A128A15752676
:100058000A128A11ED008313A0308400C6300A12F8
:100068008A1576260A128A11613084006E300A12C7
:100078008A1576260A128A11FB0183010A128A114F
:1000880045280A128A159B260A128A118316031319
:1000980006140A128A157E260A128A11D63084009E
:1000A80083160313690883138000840A6A08800092
:1000B800840A6B088000840A6C088000840A6D0832
:1000C80080002030840056088000840A5708800089
:1000D800840A58088000840A59088000840A5A084B
:1000E80080000A128A116E230A128A1100300A123D
:1000F8008A118A260A128A1101300A128A118A265E
:100108000A128A1108300A128A118A260A128A11DA
:1001180000300A128A118A260A128A111E30F80043
:100128008030F9000A128A15BA270A128A110C308F
:100138000A128A118A260A128A110A300A128A11A8
:100148008A260A128A112530F8008030F9000A122E
:100158008A15BA270A128A110A128A1589260A12DA
:100168008A11730883160313DC007208DB00003061
:1001780083120313A7000030A6000330A500FF3048
:10018800A400831603135B08F2005C08F300F40173
:10019800F5010030F9000030F8001330F70088301E
:1001A800F6000A128A1186270A128A117508831224
:1001B8000313AB007408AA007308A9007208A8000A
:1001C8000A128A11CD250A128A11831203132708ED
:1001D80083160313E80083120313260883160313F8
:1001E800E70083120313250883160313E60083121E
:1001F8000313240883160313E50000308312031346
:10020800A7000030A6000330A500E830A40083163C
:100218000313680883120313AB00831603136708DC
:1002280083120313AA0083160313660883120313A9
:10023800A90083160313650883120313A8000A1282
:100248008A11CD250A128A118312031325088316F1
:100258000313DE0083120313240883160313DD003F
:100268000030F5000030F4000330F300E830F2000D
:100278006808F9006708F8006608F7006508F600DE
:100288000A128A11DF260A128A11730883160313C9
:10029800E0007208DF0008300A128A118A260A1262
:1002A8008A1100300A128A118A260A128A11153018
:1002B800F8008030F9000A128A15BA270A128A1142
:1002C800C63083120313CE000130CF008316031308
:1002D8005E0883120313D100831603135D0883128B
:1002E8000313D00083160313600883120313D3008B
:1002F800831603135F0883120313D2000A128A15A8
:10030800D1260A128A110C300A128A118A260A1278
:100318008A1100300A128A118A260A128A11C630F6
:10032800F8000030F9000A128A15BA270A128A1151
:100338000C300A128A118A260A128A110A300A1205
:100348008A118A260A128A113C30F2000030F30022
:10035800831203136D08F5006C08F4000A128A155D
:1003680078270A128A11730883160313E2007208A9
:10037800E1003C30F2000030F300831203136D08F3
:10038800F5006C08F4000A128A1540270A128A112F
:10039800730883160313E4007208E300C030831265
:1003A8000313CE000B30CF008316031362088312A9
:1003B8000313D10083160313610883120313D000BB
:1003C80083160313640883120313D30083160313DD
:1003D800630883120313D2000A128A15D1260A125F
:1003E8008A11C030F8000030F9000A128A15BA27BD
:1003F8000A128A11B0280A128A110C28F400741CF7
:10040800062A072A1C2A831203136108840083170B
:10041800621C83130130F20064080739013E162A72
:100428000310F20DFF3E031D142A72088004312ABE
:1004380083120313610884008317621C831301303D
:10044800F20064080739013E2B2A0310F20DFF3E23
:10045800031D292A7208FF3A8005F41C342A352A1C
:100468004B2A610884008317621C83130130F20051
:10047800640CF300F30C730C0739013E452A031092
:10048800F20DFF3E031D432A72088004612A6108A9
:1004980084008317621C83130130F200640CF3009C
:1004A800F30C730C0739013E5B2A0310F20DFF3E73
:1004B800031D592A7208FF3A8005741D642A652AAB
:1004C800782A610884008317621C83130130F200C4
:1004D80065080739013E722A0310F20DFF3E031D1D
:1004E800702A720880048B2A610884008317621CB2
:1004F80083130130F20065080739013E852A03108D
:10050800F20DFF3E031D832A7208FF3A8005F41D91
:100518008E2A8F2AA52A610884008317621C8313F8
:100528000130F200650CF300F30C730C0739013E3F
:100538009F2A0310F20DFF3E031D9D2A72088004B6
:10054800BB2A610884008317621C83130130F20000
:10055800650CF300F30C730C0739013EB52A031040
:10056800F20DFF3E031DB32A7208FF3A800508000A
:10057800831203133F0884008313000884000A12BF
:100588008A150A200A128A11253A031DCC2ACD2A77
:10059800542B3F08840001308007E601E701003052
:1005A800FB00FF30E800FF30E900C701F12AFB1427
:1005B8003F08840001308007F12A0130C700F12A82
:1005C8003F088400000884000A128A150A200A12CB
:1005D8008A11303A0319DB2AE12A47080319F52A58
:1005E800F62AE42A3F08F8004008F9000A128A119E
:1005F80033260A128A11790883120313E700780850
:10060800E600E71F082B092B0F2B7B14E609E709E7
:10061800E60A0319E70A3F08840083130008C800A4
:10062800480884000A128A150A200A128A11753AA3
:10063800031D1F2B202B4C2B400884000008C100F1
:1006480002308007410884000008C300840A0008BB
:10065800C4003F0884004808013E8000412B3D0843
:10066800B4003E08B5004408B7004308B6000A12B3
:100678008A114F250A128A116D2B480884000A1224
:100688008A150A200A128A11753A0319332B4C2B42
:10069800831203133F0884000130831380076D2BF6
:1006A8003F088400000884000A128A150A200A12EA
:1006B8008A11C100C2014108F2004208F3003D0856
:1006C800F4003E08F5000A128A111B240A128A1146
:1006D8004C2B080061308400831203132008831315
:1006E8008000840A21088000840A22088000840A85
:1006F80023088000840A2408800000306206031D55
:10070800872B05306106031D8A2B8B2B8F2B8316B5
:1007180003138501AA2B00306206031D952B0630B2
:100728006106031D982B992B9D2B831603138601B5
:10073800AA2B00306206031DA32B07306106031D98
:10074800A62BA72B1A2C8316031387013430F90024
:10075800F130F800F80BAE2BF90BAE2BB32B0330AE
:100768000A128A118A260A128A110D30F900FB3002
:10077800F800F80BBD2BF90BBD2BC22B03300A1266
:100788008A118A260A128A112A30F9008D30F80057
:10079800F80BCC2BF90BCC2BD12B03300A128A1176
:1007A8008A260A128A1102300A128A118A260A1225
:1007B8008A1102300A128A118A260A128A1108300E
:1007C8000A128A118A260A128A1100300A128A111C
:1007D8008A260A128A1106300A128A118A260A12F1
:1007E8008A110830FA007A157A08F80004300310E4
:1007F800F80CFF3E031DFB2B78080F390A128A11EB
:100808008A260A128A117A080F390A128A118A2648
:100818000A128A1100300A128A118A260A128A11CB
:1008280001300A128A118A260A128A1108007408ED
:1008380075040319202C212C272C74087504031D1A
:10084800262C272C2E2C72080A128A11FD270A1230
:100858008A11BA2C7408093E83120313A000750884
:100868000318013E003EA100200884008317211CC4
:1008780083130008A200840A0008A30022082304A6
:100888000319472C482C7A2C7408093EA0007508D7
:100898000318013E003EA100200884008317211C94
:1008A80083130008A200840A0008A3007408023E0B
:1008B800A40075080318013E003EA5002408840022
:1008C8008317251C83130008A600840A0008A700C4
:1008D8002708803AA8002308803A2802031D762CAE
:1008E800220826020318792C7A2CBA2C7408840062
:1008F8008317751C8313000883120313A000840A4E
:100908000008A1007408023EA20075080318013E01
:10091800003EA300220884008317231C83130008C9
:100928002007A5002108A4000318A40A801F9D2CF5
:10093800A403831203132408A60025088400831740
:10094800261C8313720880007408023EA0007508F4
:100958000318013E003EA100200884008317211CD3
:10096800831301308007840A0318800A0800F700FF
:1009780083120313610884008317621C83130130F8
:10098800F50063080739013ECB2C0310F50DFF3E37
:10099800031DC92C750880047708F500043003107E
:1009A800F50CFF3E031DD32C75080F390A128A1166
:1009B80002220A128A118312031361088400831722
:1009C800621C83130130F500630CF600F60C760CFC
:1009D8000739013EF12C0310F50DFF3E031DEF2CE6
:1009E800750880041A30F500F50BF82C0000831206
:1009F8000313610884008317621C83130130F50018
:100A0800630CF600F60C760C0739013E0D2D031029
:100A1800F50DFF3E031D0B2D7508FF3A800577087D
:100A28000F390A128A1102220A128A118312031339
:100A3800610884008317621C83130130F500630C7E
:100A4800F600F60C760C0739013E2C2D0310F50D37
:100A5800FF3E031D2A2D750880041A30F500F50B9A
:100A6800332D000083120313610884008317621C6E
:100A780083130130F500630CF600F60C760C073989
:100A8800013E482D0310F50DFF3E031D462D750848
:100A9800FF3A80050800013083120313B800670885
:100AA800BA006608B9001F30BB000030BC008316CE
:100AB8000313BF01972DFF3083120313BB070318DD
:100AC800BC0AFF30BC073B08A03E84000A30F20095
:100AD8000030F3003708F5003608F4000A128A15CA
:100AE80040270A128A117208303E8313800083124D
:100AF8000313B801FF30B9070318BA0AFF30BA0761
:100B08000A30F2000030F3003708F5003608F40028
:100B18000A128A1578270A128A1173088312031396
:100B2800B7007208B60083123B083C0403199D2DD8
:100B38009E2DBA2D36083704031DA32DA42D5F2D35
:100B48003808031DA82DA92D5F2D3A08803AFF000B
:100B580080307F02031DB22D01303902031CB52DF0
:100B6800B62DBA2DFB18B92DBA2D5F2D831203139C
:100B78003408AC003508AD003B08A03EAE003A088A
:100B8800B0003908AF000A128A1133270A128A11F5
:100B98000800003083120313B0000030AF000030AB
:100BA800AE000030AD0027082604250424040319EC
:100BB800DE2DDF2D2A2E0130B100ED2D0130AC00E5
:100BC8000310A40DA50DA60DA70DAC0BE42D013047
:100BD800B107A71FF02DF12DE22D0130AC00031055
:100BE800AD0DAE0DAF0DB00DAC0BF32D27082B02DC
:100BF800031D082E26082A02031D082E250829028F
:100C0800031D082E24082802031C0B2E0C2E1B2E55
:100C18002408A8022508031C250FA9022608031C7E
:100C2800260FAA022708031C270FAB022D14013038
:100C38000310A70CA60CA50CA40CFF3E031D1C2E2C
:100C48000130B102031D292E2A2EF12D3008A700EC
:100C58002F08A6002E08A5002D08A400080083125E
:100C68000313A101A20178088400831300088400FB
:100C78000A128A150A200A128A112A3A031D452ED9
:100C8800462E742E78088400013080077908840085
:100C98000008FA00023080077A0884000008A100E2
:100CA800840A0008A200852E2208F3002108F20019
:100CB8000A30F4000030F5000A128A15F4260A12E8
:100CC8008A118312031320087207A1000030031849
:100CD80001307307A200780884000130831380076D
:100CE80078088400000884000A128A150A200A126B
:100CF8008A11D03EA0000A302002031C842E852EC3
:100D0800582E2208F9002108F8000800F70083127D
:100D18000313610884008317621C83130130F500F4
:100D280063080739013E9A2E0310F50DFF3E031D97
:100D3800982E7508FF3A800577080A128A11022250
:100D48000A128A1183120313610884008317621C34
:100D580083130130F500630CF600F60C760C0739A6
:100D6800013EB82E0310F50DFF3E031DB62E750883
:100D780080040B30F6006230F500F50BC12EF60B3F
:100D8800C12E000083120313610884008317621CBC
:100D980083130130F500630CF600F60C760C073966
:100DA800013ED82E0310F50DFF3E031DD62E750803
:100DB800FF3A800508007508740473047204031967
:100DC800E62EE72E2A2F013083120313A000F72EF8
:100DD8000130FA000310F20DF30DF40DF50DFA0BC6
:100DE800EE2E0130A007F51FFA2EFB2EEC2E75080B
:100DF8007902031D092F74087802031D092F73084F
:100E08007702031D092F72087602031C0C2F0D2F81
:100E18001B2F7208F6027308031C730FF70274087D
:100E2800031C740FF8027508031C750FF9020130D2
:100E38000310F50CF40CF30CF20CFF3E031D1C2FF1
:100E48000130A002031D292F2A2FFB2E7908F50057
:100E58007808F4007708F3007608F20008007B1C95
:100E6800362F372F442F831203132E08F6002C0831
:100E7800F7002D08F8000A128A11D2270A128A11DF
:100E880083120313B01F492F4A2F4C2FAF01B00113
:100E9800B201B301662F2030F2000030F300831254
:100EA80003132C08F4002D08F5000A128A111B24DC
:100EB8000A128A11013083120313B2070318B30A06
:100EC8000030B3073308803AB1003008803A310265
:100ED800031D702F2F083202031C732F742F4F2FFE
:100EE8007B18772F782F852F831203132E08F6008F
:100EF8002C08F7002D08F8000A128A11D2270A12C6
:100F08008A110800003083120313A3000030A200E6
:100F18000030A1000030A000721C932F942FAD2F39
:100F2800760883120313A007770803110318013EFC
:100F380003199F2FA107780803110318013E03190D
:100F4800A62FA207790803110318013E0319AD2F34
:100F5800A3070130FA000310F60DF70DF80DF90D8F
:100F6800FA0BAF2F01300310F50CF40CF30CF20C54
:100F7800FF3E031DB72F7508740473047204031D24
:100F8800C62FC72F902F831203132308F5002208BA
:100F9800F4002108F3002008F2000800831203136C
:100FA800AA01AB01EF2F2908F900FA017908F2002C
:100FB8007A08F3007708F4007808F5000A128A1115
:100FC8001B240A128A11013083120313AA0703187B
:100FD800AB0A0030AB072A087607F90079088400C5
:100FE80083130008A9002908031DFB2FFC2FD72F06
:040FF80008000800E5
:10100000FF1B0A2883137F1883170008840A03191B
:10101000FF0A080008308A000408840A82070034A6
:10102000253475342E34253430343334753420343B
:101030005634003425343034323475343A3425345F
:10104000303432347534003456346F346C34743484
:1010500061346A3465343A340034543469346D345C
:1010600065343A3420340034303430343A34303457
:0410700030340034E4
:101CE200073400341A342C343E3464008001840AF0
:101CF2000406031900340406772E073083160313F3
:101D02008100B2308312031381008B168B170800F7
:101D12000330F400F40B8B2E831203139F149F18CD
:101D2200932E942E902E1E08F300831603131E0882
:101D3200F200080001308316031788008901831618
:101D4200031301087F3981008130831203139F003E
:101D52008030831603139F000800831203134B087D
:101D6200CD00C02E4908BD004A08BE004D30BF005C
:101D72004C08C0000A128A11BC220A128A15831268
:101D820003134D0884000A128A150A200A128A15C2
:101D9200003A031DCD2ECE2EB32EC901CA01080072
:101DA200503083120313D5004E08D6000030D700FE
:101DB200D801D901DF01E0015630C9000030CA0064
:101DC2004F08CB005530CC000A128A15AE260A12F3
:101DD2008A158312031358084E07D400540884004E
:101DE200831380010800F601F701721CF92EFA2E06
:101DF200002F7408F6070318F70A7508F707013071
:101E02000310F40DF50DFF3E031D012F01300310E9
:101E1200F30CF20CFF3E031D082F72087304031D1E
:101E2200132F142FF62E7708F3007608F20008001D
:101E32000B1D1C2F1D2F392F013083120313EA07AC
:101E42000318EB0A0030EB0700306B026530031910
:101E52006A02031C2D2F2E2F362F0130EC07031898
:101E6200ED0A0030ED07EA01EB01B23081000B11FF
:101E720071088A00700E8300FE0E7E0E0900720841
:101E820073040319452F462F732F0130F600522F8A
:101E920001300310F20DF30DFF3E031D4A2F0130F6
:101EA200F607F31F552F562F492F73087502031D8E
:101EB2005C2F72087402031C5F2F602F662F72085A
:101EC200F4027308031CF503F50201300310F30C4E
:101ED200F20CFF3E031D672F0130F602031D722F25
:101EE200732F562F7508F3007408F2000800F601EC
:101EF200F7017208730403197F2F802FB52F013069
:101F0200F8008C2F01300310F20DF30DFF3E031D7C
:101F1200842F0130F807F31F8F2F902F832F01306A
:101F22000310F60DF70DFF3E031D912F7308750286
:101F3200031D9D2F72087402031CA02FA12FA82F2E
:101F42007208F4027308031CF503F50276140130DB
:101F52000310F30CF20CFF3E031DA92F0130F8020F
:101F6200031DB42FB52F902F7708F3007608F200E7
:101F7200080083120313A301A401E32F23087807A7
:101F8200A1007908A0000318A00AA31FC92FA0036B
:101F9200831203132008A2002208FF0021088400F4
:101FA2000A128A1500200A128A150A128A11BB2403
:101FB2000A128A15013083120313A3070318A40A15
:101FC2000030A40723087807A1007908A0000318AD
:101FD200A00AA31FED2FA003831203132008A2005F
:101FE2002208FF00210884000A128A1500200A1222
:0E1FF2008A15003A031DFE2FFF2FBF2F080097
:04400E00F22FFF3F4F
:00000001FF
