:060000000A128A11EE2F26
:100D20007E088A007F0882000A128A1190260A1221
:100D30008A118000840A04087D0603190034FF0A22
:100D40000319FE0A942E3C34423481348134FF343A
:100D50008134813481347E348134803480348034F1
:100D6000803481347E34FF34183418341834183405
:100D700018341834FF34FF34043404340434043495
:100D800084348434783481348134813481348134BE
:100D9000813481347E34FF3480348034FE348034B6
:100DA00080348034FF34813442342434183418348D
:100DB000243442348134831603138601880183125C
:100DC0000313860188015030F0000A128A11182797
:100DD0000A128A114830F0000A128A1118270A12E2
:100DE0008A114030F0000A128A1118270A128A115B
:100DF0003830F0000A128A1118270A128A1130308E
:100E0000F0000A128A1118270A128A112830F000FD
:100E10000A128A1118270A128A112030F0000A12C9
:100E20008A1118270A128A11E32E0A128A11002841
:100E30000730FC00F301F401F90108307902031CCA
:100E4000222F232F242F4F2F0130F100790A2A2F30
:100E50000310F10DFF3E031D282F710883120313A9
:100E6000860079087007F100710884008313000878
:100E7000F2007C0A3D2F0310F20CFF3E031D3B2FB6
:100E80007208FF3A88000630F2003030F100F10BB2
:100E9000472FF20B472F00000130F9071D2F0130BB
:100EA000F3070318F40A0030F40700307402083026
:100EB00003197302031C5D2F5E2F1C2FFF30FC07EC
:100EC000FC1F632F642F1A2FF501F601FA01083079
:100ED0007A02031C6C2F6D2F6E2F8F2F0130F100C3
:100EE0007A0A742F0310F10DFF3E031D722F710853
:100EF0008312031386007A087007F10071088400DA
:100F00008313000988000630F2003030F100F10B45
:100F1000872FF20B872F00000130FA07672F01306F
:100F2000F5070318F60A0030F607003076020530A0
:100F300003197502031C9D2F9E2F662F0130FC00A4
:100F4000F701F801FB0108307B02031CA82FA92F31
:100F5000AA2FD52F0130F1007B0AB02F0310F10D1D
:100F6000FF3E031DAE2F71088312031386007B081A
:100F70007007F1007108840083130008F2007C0AF6
:100F8000C32F0310F20DFF3E031DC12F7208FF3A5D
:100F900088000630F2003030F100F10BCD2FF20B5B
:100FA000CD2F00000130FB07A32F0130F7070318F6
:100FB000F80A0030F8070030780208300319770289
:100FC000031CE32FE42FA22F0130FC077C08803A9A
:100FD000783E031CEC2FED2FA02F08008313583010
:100FE000FD000630FE00A330FF00203084000A120E
:100FF0008A1194260A128A1183010A128A11DB2EA1
:04400E00F22FFF3F4F
:00000001FF
